{
  "contractName": "Ballot",
  "abi": [
    {
      "inputs": [],
      "stateMutability": "nonpayable",
      "type": "constructor"
    },
    {
      "inputs": [],
      "name": "admin",
      "outputs": [
        {
          "internalType": "address",
          "name": "",
          "type": "address"
        }
      ],
      "stateMutability": "view",
      "type": "function",
      "constant": true
    },
    {
      "inputs": [
        {
          "internalType": "uint256",
          "name": "",
          "type": "uint256"
        }
      ],
      "name": "candidates",
      "outputs": [
        {
          "internalType": "bytes32",
          "name": "name",
          "type": "bytes32"
        },
        {
          "internalType": "uint256",
          "name": "voteCount",
          "type": "uint256"
        },
        {
          "internalType": "bytes32",
          "name": "partyName",
          "type": "bytes32"
        },
        {
          "internalType": "string",
          "name": "partySymbol",
          "type": "string"
        }
      ],
      "stateMutability": "view",
      "type": "function",
      "constant": true
    },
    {
      "inputs": [
        {
          "internalType": "address",
          "name": "",
          "type": "address"
        }
      ],
      "name": "voters",
      "outputs": [
        {
          "internalType": "uint256",
          "name": "weight",
          "type": "uint256"
        },
        {
          "internalType": "bool",
          "name": "voted",
          "type": "bool"
        }
      ],
      "stateMutability": "view",
      "type": "function",
      "constant": true
    },
    {
      "inputs": [
        {
          "internalType": "bytes32",
          "name": "election",
          "type": "bytes32"
        },
        {
          "internalType": "bytes32",
          "name": "desc",
          "type": "bytes32"
        },
        {
          "internalType": "uint256",
          "name": "duration",
          "type": "uint256"
        }
      ],
      "name": "createElection",
      "outputs": [],
      "stateMutability": "nonpayable",
      "type": "function"
    },
    {
      "inputs": [],
      "name": "getElectionName",
      "outputs": [
        {
          "internalType": "string",
          "name": "elecName",
          "type": "string"
        }
      ],
      "stateMutability": "view",
      "type": "function",
      "constant": true
    },
    {
      "inputs": [],
      "name": "getElectionDesc",
      "outputs": [
        {
          "internalType": "string",
          "name": "elecDesc",
          "type": "string"
        }
      ],
      "stateMutability": "view",
      "type": "function",
      "constant": true
    },
    {
      "inputs": [],
      "name": "getVotingDeadline",
      "outputs": [
        {
          "internalType": "uint256",
          "name": "",
          "type": "uint256"
        }
      ],
      "stateMutability": "view",
      "type": "function",
      "constant": true
    },
    {
      "inputs": [
        {
          "internalType": "bytes32",
          "name": "x",
          "type": "bytes32"
        }
      ],
      "name": "bytes32ToString",
      "outputs": [
        {
          "internalType": "string",
          "name": "",
          "type": "string"
        }
      ],
      "stateMutability": "pure",
      "type": "function",
      "constant": true
    },
    {
      "inputs": [
        {
          "internalType": "string",
          "name": "source",
          "type": "string"
        }
      ],
      "name": "stringToBytes32",
      "outputs": [
        {
          "internalType": "bytes32",
          "name": "result",
          "type": "bytes32"
        }
      ],
      "stateMutability": "pure",
      "type": "function",
      "constant": true
    },
    {
      "inputs": [
        {
          "internalType": "bytes32",
          "name": "candidateName",
          "type": "bytes32"
        },
        {
          "internalType": "bytes32",
          "name": "partyName",
          "type": "bytes32"
        },
        {
          "internalType": "string",
          "name": "symbol",
          "type": "string"
        }
      ],
      "name": "addCandidate",
      "outputs": [],
      "stateMutability": "nonpayable",
      "type": "function"
    },
    {
      "inputs": [],
      "name": "getCandidateLength",
      "outputs": [
        {
          "internalType": "uint256",
          "name": "length",
          "type": "uint256"
        }
      ],
      "stateMutability": "view",
      "type": "function",
      "constant": true
    },
    {
      "inputs": [
        {
          "internalType": "uint256",
          "name": "index",
          "type": "uint256"
        }
      ],
      "name": "getCandidate",
      "outputs": [
        {
          "internalType": "string",
          "name": "candid",
          "type": "string"
        }
      ],
      "stateMutability": "view",
      "type": "function",
      "constant": true
    },
    {
      "inputs": [
        {
          "internalType": "uint256",
          "name": "index",
          "type": "uint256"
        }
      ],
      "name": "getCandidatePartyName",
      "outputs": [
        {
          "internalType": "string",
          "name": "party",
          "type": "string"
        }
      ],
      "stateMutability": "view",
      "type": "function",
      "constant": true
    },
    {
      "inputs": [
        {
          "internalType": "uint256",
          "name": "index",
          "type": "uint256"
        }
      ],
      "name": "getCandidatePartySymbol",
      "outputs": [
        {
          "internalType": "string",
          "name": "symb",
          "type": "string"
        }
      ],
      "stateMutability": "view",
      "type": "function",
      "constant": true
    },
    {
      "inputs": [
        {
          "internalType": "uint256",
          "name": "index",
          "type": "uint256"
        }
      ],
      "name": "getCandidateDetails",
      "outputs": [
        {
          "internalType": "string",
          "name": "candidate",
          "type": "string"
        },
        {
          "internalType": "string",
          "name": "partyName",
          "type": "string"
        },
        {
          "internalType": "string",
          "name": "symb",
          "type": "string"
        }
      ],
      "stateMutability": "view",
      "type": "function",
      "constant": true
    },
    {
      "inputs": [
        {
          "internalType": "address",
          "name": "voter",
          "type": "address"
        }
      ],
      "name": "giveRightToVote",
      "outputs": [],
      "stateMutability": "nonpayable",
      "type": "function"
    },
    {
      "inputs": [
        {
          "internalType": "address",
          "name": "voter",
          "type": "address"
        }
      ],
      "name": "addVoter",
      "outputs": [],
      "stateMutability": "nonpayable",
      "type": "function"
    },
    {
      "inputs": [
        {
          "internalType": "address",
          "name": "voter",
          "type": "address"
        }
      ],
      "name": "voterExist",
      "outputs": [
        {
          "internalType": "bool",
          "name": "",
          "type": "bool"
        }
      ],
      "stateMutability": "view",
      "type": "function",
      "constant": true
    },
    {
      "inputs": [],
      "name": "deleteAllVoters",
      "outputs": [],
      "stateMutability": "nonpayable",
      "type": "function"
    },
    {
      "inputs": [
        {
          "internalType": "uint256",
          "name": "index",
          "type": "uint256"
        }
      ],
      "name": "getVoter",
      "outputs": [
        {
          "internalType": "address",
          "name": "",
          "type": "address"
        }
      ],
      "stateMutability": "view",
      "type": "function",
      "constant": true
    },
    {
      "inputs": [],
      "name": "getVotersLength",
      "outputs": [
        {
          "internalType": "uint256",
          "name": "votersLength",
          "type": "uint256"
        }
      ],
      "stateMutability": "view",
      "type": "function",
      "constant": true
    },
    {
      "inputs": [
        {
          "internalType": "bytes32",
          "name": "candidate",
          "type": "bytes32"
        }
      ],
      "name": "validCandidate",
      "outputs": [
        {
          "internalType": "bool",
          "name": "",
          "type": "bool"
        }
      ],
      "stateMutability": "view",
      "type": "function",
      "constant": true
    },
    {
      "inputs": [
        {
          "internalType": "bytes32",
          "name": "candidateName",
          "type": "bytes32"
        }
      ],
      "name": "vote",
      "outputs": [],
      "stateMutability": "nonpayable",
      "type": "function"
    },
    {
      "inputs": [
        {
          "internalType": "uint256",
          "name": "index",
          "type": "uint256"
        }
      ],
      "name": "getCandidateVoteCount",
      "outputs": [
        {
          "internalType": "uint256",
          "name": "voteCount",
          "type": "uint256"
        }
      ],
      "stateMutability": "view",
      "type": "function",
      "constant": true
    },
    {
      "inputs": [],
      "name": "getTotalVotes",
      "outputs": [
        {
          "internalType": "uint256",
          "name": "count",
          "type": "uint256"
        }
      ],
      "stateMutability": "view",
      "type": "function",
      "constant": true
    },
    {
      "inputs": [
        {
          "internalType": "address",
          "name": "voter",
          "type": "address"
        }
      ],
      "name": "getVoted",
      "outputs": [
        {
          "internalType": "bool",
          "name": "voted",
          "type": "bool"
        }
      ],
      "stateMutability": "view",
      "type": "function",
      "constant": true
    },
    {
      "inputs": [],
      "name": "winningCandidate",
      "outputs": [
        {
          "internalType": "uint256",
          "name": "winner",
          "type": "uint256"
        }
      ],
      "stateMutability": "view",
      "type": "function",
      "constant": true
    },
    {
      "inputs": [],
      "name": "winnerName",
      "outputs": [
        {
          "internalType": "string",
          "name": "winner",
          "type": "string"
        }
      ],
      "stateMutability": "view",
      "type": "function",
      "constant": true
    }
  ],
  "bytecode": "0x608060405234801561001057600080fd5b5033600260006101000a81548173ffffffffffffffffffffffffffffffffffffffff021916908373ffffffffffffffffffffffffffffffffffffffff160217905550611c72806100616000396000f3fe608060405234801561001057600080fd5b50600436106101c45760003560e01c8063a3ec138d116100f9578063d28178d711610097578063f4ab9adf11610071578063f4ab9adf14610ce6578063f7522a8314610d2a578063f851a44014610d48578063fffa7ae414610d7c576101c4565b8063d28178d714610c27578063de2237d314610c45578063e2ba53f014610c63576101c4565b8063b315c597116100d3578063b315c59714610a64578063b93244fd14610aa6578063cfb5192814610b00578063d07bff0c14610bcf576101c4565b8063a3ec138d14610993578063a40858a1146109f4578063a69beaba14610a36576101c4565b80633e15cd33116101665780638ec77d5d116101405780638ec77d5d146107e35780639201de551461088a5780639a0e7d66146109315780639e7b8d611461094f576101c4565b80633e15cd33146106375780635aa82fbe14610706578063666ae43014610760576101c4565b806330e7a79c116101a257806330e7a79c1461040d5780633477ee2e1461049057806335b8e8201461054c578063392e6678146105f3576101c4565b80631f7b8622146101c95780632471de16146101e757806327f9fd501461028e575b600080fd5b6101d1610d86565b6040518082815260200191505060405180910390f35b610213600480360360208110156101fd57600080fd5b8101908080359060200190929190505050610d90565b6040518080602001828103825283818151815260200191508051906020019080838360005b83811015610253578082015181840152602081019050610238565b50505050905090810190601f1680156102805780820380516001836020036101000a031916815260200191505b509250505060405180910390f35b6102ba600480360360208110156102a457600080fd5b8101908080359060200190929190505050610dc0565b60405180806020018060200180602001848103845287818151815260200191508051906020019080838360005b838110156103025780820151818401526020810190506102e7565b50505050905090810190601f16801561032f5780820380516001836020036101000a031916815260200191505b50848103835286818151815260200191508051906020019080838360005b8381101561036857808201518184015260208101905061034d565b50505050905090810190601f1680156103955780820380516001836020036101000a031916815260200191505b50848103825285818151815260200191508051906020019080838360005b838110156103ce5780820151818401526020810190506103b3565b50505050905090810190601f1680156103fb5780820380516001836020036101000a031916815260200191505b50965050505050505060405180910390f35b610415610ed7565b6040518080602001828103825283818151815260200191508051906020019080838360005b8381101561045557808201518184015260208101905061043a565b50505050905090810190601f1680156104825780820380516001836020036101000a031916815260200191505b509250505060405180910390f35b6104bc600480360360208110156104a657600080fd5b8101908080359060200190929190505050610ee9565b6040518085815260200184815260200183815260200180602001828103825283818151815260200191508051906020019080838360005b8381101561050e5780820151818401526020810190506104f3565b50505050905090810190601f16801561053b5780820380516001836020036101000a031916815260200191505b509550505050505060405180910390f35b6105786004803603602081101561056257600080fd5b8101908080359060200190929190505050610fbe565b6040518080602001828103825283818151815260200191508051906020019080838360005b838110156105b857808201518184015260208101905061059d565b50505050905090810190601f1680156105e55780820380516001836020036101000a031916815260200191505b509250505060405180910390f35b61061f6004803603602081101561060957600080fd5b8101908080359060200190929190505050610fee565b60405180821515815260200191505060405180910390f35b6107046004803603606081101561064d57600080fd5b8101908080359060200190929190803590602001909291908035906020019064010000000081111561067e57600080fd5b82018360208201111561069057600080fd5b803590602001918460018302840111640100000000831117156106b257600080fd5b91908080601f016020809104026020016040519081016040528093929190818152602001838380828437600081840152601f19601f82011690508083019250505050505050919291929050505061104b565b005b6107486004803603602081101561071c57600080fd5b81019080803573ffffffffffffffffffffffffffffffffffffffff1690602001909291905050506110da565b60405180821515815260200191505060405180910390f35b61076861114b565b6040518080602001828103825283818151815260200191508051906020019080838360005b838110156107a857808201518184015260208101905061078d565b50505050905090810190601f1680156107d55780820380516001836020036101000a031916815260200191505b509250505060405180910390f35b61080f600480360360208110156107f957600080fd5b810190808035906020019092919050505061115d565b6040518080602001828103825283818151815260200191508051906020019080838360005b8381101561084f578082015181840152602081019050610834565b50505050905090810190601f16801561087c5780820380516001836020036101000a031916815260200191505b509250505060405180910390f35b6108b6600480360360208110156108a057600080fd5b810190808035906020019092919050505061121d565b6040518080602001828103825283818151815260200191508051906020019080838360005b838110156108f65780820151818401526020810190506108db565b50505050905090810190601f1680156109235780820380516001836020036101000a031916815260200191505b509250505060405180910390f35b6109396113d4565b6040518082815260200191505060405180910390f35b6109916004803603602081101561096557600080fd5b81019080803573ffffffffffffffffffffffffffffffffffffffff169060200190929190505050611419565b005b6109d5600480360360208110156109a957600080fd5b81019080803573ffffffffffffffffffffffffffffffffffffffff169060200190929190505050611572565b6040518083815260200182151581526020019250505060405180910390f35b610a3460048036036060811015610a0a57600080fd5b810190808035906020019092919080359060200190929190803590602001909291905050506115a3565b005b610a6260048036036020811015610a4c57600080fd5b81019080803590602001909291905050506115e6565b005b610a9060048036036020811015610a7a57600080fd5b810190808035906020019092919050505061175c565b6040518082815260200191505060405180910390f35b610ae860048036036020811015610abc57600080fd5b81019080803573ffffffffffffffffffffffffffffffffffffffff169060200190929190505050611784565b60405180821515815260200191505060405180910390f35b610bb960048036036020811015610b1657600080fd5b8101908080359060200190640100000000811115610b3357600080fd5b820183602082011115610b4557600080fd5b80359060200191846001830284011164010000000083111715610b6757600080fd5b91908080601f016020809104026020016040519081016040528093929190818152602001838380828437600081840152601f19601f820116905080830192505050505050509192919290505050611826565b6040518082815260200191505060405180910390f35b610bfb60048036036020811015610be557600080fd5b8101908080359060200190929190505050611834565b604051808273ffffffffffffffffffffffffffffffffffffffff16815260200191505060405180910390f35b610c2f611875565b6040518082815260200191505060405180910390f35b610c4d6118e9565b6040518082815260200191505060405180910390f35b610c6b6118f6565b6040518080602001828103825283818151815260200191508051906020019080838360005b83811015610cab578082015181840152602081019050610c90565b50505050905090810190601f168015610cd85780820380516001836020036101000a031916815260200191505b509250505060405180910390f35b610d2860048036036020811015610cfc57600080fd5b81019080803573ffffffffffffffffffffffffffffffffffffffff16906020019092919050505061192b565b005b610d326119a5565b6040518082815260200191505060405180910390f35b610d506119b2565b604051808273ffffffffffffffffffffffffffffffffffffffff16815260200191505060405180910390f35b610d846119d8565b005b6000600354905090565b6060610db960068381548110610da257fe5b90600052602060002090600402016002015461121d565b9050919050565b6060806060610dec60068581548110610dd557fe5b90600052602060002090600402016000015461121d565b9250610e1560068581548110610dfe57fe5b90600052602060002090600402016002015461121d565b915060068481548110610e2457fe5b90600052602060002090600402016003018054600181600116156101000203166002900480601f016020809104026020016040519081016040528092919081815260200182805460018160011615610100020316600290048015610ec95780601f10610e9e57610100808354040283529160200191610ec9565b820191906000526020600020905b815481529060010190602001808311610eac57829003601f168201915b505050505090509193909250565b6060610ee460005461121d565b905090565b60068181548110610ef657fe5b9060005260206000209060040201600091509050806000015490806001015490806002015490806003018054600181600116156101000203166002900480601f016020809104026020016040519081016040528092919081815260200182805460018160011615610100020316600290048015610fb45780601f10610f8957610100808354040283529160200191610fb4565b820191906000526020600020905b815481529060010190602001808311610f9757829003601f168201915b5050505050905084565b6060610fe760068381548110610fd057fe5b90600052602060002090600402016000015461121d565b9050919050565b600080600090505b60068054905081101561104057826006828154811061101157fe5b9060005260206000209060040201600001541415611033576001915050611046565b8080600101915050610ff6565b50600090505b919050565b600660405180608001604052808581526020016000815260200184815260200183815250908060018154018082558091505060019003906000526020600020906004020160009091909190915060008201518160000155602082015181600101556040820151816002015560608201518160030190805190602001906110d2929190611ad3565b505050505050565b600060011515600460008473ffffffffffffffffffffffffffffffffffffffff1673ffffffffffffffffffffffffffffffffffffffff16815260200190815260200160002060010160009054906101000a900460ff16151514156111415760019050611146565b600090505b919050565b606061115860015461121d565b905090565b60606006828154811061116c57fe5b90600052602060002090600402016003018054600181600116156101000203166002900480601f0160208091040260200160405190810160405280929190818152602001828054600181600116156101000203166002900480156112115780601f106111e657610100808354040283529160200191611211565b820191906000526020600020905b8154815290600101906020018083116111f457829003601f168201915b50505050509050919050565b606080602067ffffffffffffffff8111801561123857600080fd5b506040519080825280601f01601f19166020018201604052801561126b5781602001600182028036833780820191505090505b5090506000805b602081101561130e5760008160080260020a8660001c0260001b9050600060f81b817effffffffffffffffffffffffffffffffffffffffffffffffffffffffffffff19161461130057808484815181106112c857fe5b60200101907effffffffffffffffffffffffffffffffffffffffffffffffffffffffffffff1916908160001a90535082806001019350505b508080600101915050611272565b5060608167ffffffffffffffff8111801561132857600080fd5b506040519080825280601f01601f19166020018201604052801561135b5781602001600182028036833780820191505090505b50905060005b828110156113c85783818151811061137557fe5b602001015160f81c60f81b82828151811061138c57fe5b60200101907effffffffffffffffffffffffffffffffffffffffffffffffffffffffffffff1916908160001a9053508080600101915050611361565b50809350505050919050565b6000805b60068054905081101561141557600681815481106113f257fe5b9060005260206000209060040201600101548201915080806001019150506113d8565b5090565b600260009054906101000a900473ffffffffffffffffffffffffffffffffffffffff1673ffffffffffffffffffffffffffffffffffffffff163373ffffffffffffffffffffffffffffffffffffffff161461147357600080fd5b600260009054906101000a900473ffffffffffffffffffffffffffffffffffffffff1673ffffffffffffffffffffffffffffffffffffffff163373ffffffffffffffffffffffffffffffffffffffff16146114cd57600080fd5b600460008273ffffffffffffffffffffffffffffffffffffffff1673ffffffffffffffffffffffffffffffffffffffff16815260200190815260200160002060010160009054906101000a900460ff161561152757600080fd5b6001600460008373ffffffffffffffffffffffffffffffffffffffff1673ffffffffffffffffffffffffffffffffffffffff1681526020019081526020016000206000018190555050565b60046020528060005260406000206000915090508060000154908060010160009054906101000a900460ff16905082565b600660006115b19190611b53565b6115b96119d8565b600560006115c79190611b77565b82600081905550603c8102420160038190555081600181905550505050565b6000600460003373ffffffffffffffffffffffffffffffffffffffff1673ffffffffffffffffffffffffffffffffffffffff168152602001908152602001600020905060035442106116a0576040517f08c379a000000000000000000000000000000000000000000000000000000000815260040180806020018281038252601b8152602001807f766f74696e6720706572696f6420656e64656420616c7265616479000000000081525060200191505060405180910390fd5b8060010160009054906101000a900460ff16156116bc57600080fd5b60018160010160006101000a81548160ff0219169083151502179055506001816000018190555060005b60068054905081101561175757826006828154811061170157fe5b906000526020600020906004020160000154141561174a5781600001546006828154811061172b57fe5b9060005260206000209060040201600101600082825401925050819055505b80806001019150506116e6565b505050565b60006006828154811061176b57fe5b9060005260206000209060040201600101549050919050565b600080600090505b60058054905081101561181b578273ffffffffffffffffffffffffffffffffffffffff16600582815481106117bd57fe5b9060005260206000200160009054906101000a900473ffffffffffffffffffffffffffffffffffffffff1673ffffffffffffffffffffffffffffffffffffffff16141561180e576001915050611821565b808060010191505061178c565b50600090505b919050565b600060208201519050919050565b60006005828154811061184357fe5b9060005260206000200160009054906101000a900473ffffffffffffffffffffffffffffffffffffffff169050919050565b6000806000905060005b6006805490508110156118e457816006828154811061189a57fe5b90600052602060002090600402016001015411156118d757600681815481106118bf57fe5b90600052602060002090600402016001015491508092505b808060010191505061187f565b505090565b6000600580549050905090565b60606119266006611905611875565b8154811061190f57fe5b90600052602060002090600402016000015461121d565b905090565b600061193682611784565b9050806119a1576005829080600181540180825580915050600190039060005260206000200160009091909190916101000a81548173ffffffffffffffffffffffffffffffffffffffff021916908373ffffffffffffffffffffffffffffffffffffffff1602179055505b5050565b6000600680549050905090565b600260009054906101000a900473ffffffffffffffffffffffffffffffffffffffff1681565b60005b600580549050811015611ad057611a28600582815481106119f857fe5b9060005260206000200160009054906101000a900473ffffffffffffffffffffffffffffffffffffffff16611784565b15611ac3576004600060058381548110611a3e57fe5b9060005260206000200160009054906101000a900473ffffffffffffffffffffffffffffffffffffffff1673ffffffffffffffffffffffffffffffffffffffff1673ffffffffffffffffffffffffffffffffffffffff1681526020019081526020016000206000808201600090556001820160006101000a81549060ff021916905550505b80806001019150506119db565b50565b828054600181600116156101000203166002900490600052602060002090601f016020900481019282601f10611b1457805160ff1916838001178555611b42565b82800160010185558215611b42579182015b82811115611b41578251825591602001919060010190611b26565b5b509050611b4f9190611b98565b5090565b5080546000825560040290600052602060002090810190611b749190611bb5565b50565b5080546000825590600052602060002090810190611b959190611b98565b50565b5b80821115611bb1576000816000905550600101611b99565b5090565b5b80821115611bf05760008082016000905560018201600090556002820160009055600382016000611be79190611bf4565b50600401611bb6565b5090565b50805460018160011615610100020316600290046000825580601f10611c1a5750611c39565b601f016020900490600052602060002090810190611c389190611b98565b5b5056fea2646970667358221220071000a65deae85c1b57c76e09ac84a968c44a494629de12ec56296379ba9c5e64736f6c63430007000033",
  "immutableReferences": {},
  "source": "// SPDX-License-Identifier: MIT\r\npragma solidity >=0.4.21 <=0.7.0;\r\n\r\n\r\ncontract Ballot {\r\n\r\n\t//Information about a voter\r\n\tstruct Voter {\r\n\t\tuint weight; //weight is amount of vote the voter can have\r\n\t\tbool voted; //true implies voter already voted\r\n\t}\r\n\r\n\t//Candidate type for a single candidate\r\n\r\n\tstruct Candidate {\r\n\t\tbytes32 name; // name up to 32 bytes\r\n\t\tuint voteCount; // total number of votes\r\n\t\tbytes32 partyName;\r\n\t\tstring partySymbol;\r\n\t}\r\n\r\n\tbytes32 electionName;\r\n\tbytes32 electionDesc;\r\n\taddress public admin;\r\n\tuint votingdeadline;\r\n\r\n\tconstructor() {\r\n\t\tadmin = msg.sender;\r\n\t}\r\n\r\n\t/*\r\n\t *This is a special type of func called modifier which is used to restrict the execution of certain transaction, where the admin only have the rights to do so\r\n\t *\r\n\t */\r\n\tmodifier onlyAdmin() {\r\n\t\trequire(msg.sender == admin);\r\n\t\t_;\r\n\t}\r\n\r\n\t\r\n\t//Mapping is used to store the voters detail on the basis of their address\r\n\tmapping(address => Voter) public voters;\r\n\taddress[] voterIndex;\r\n\r\n\t//Dynamnically-sized array of 'Candidate' structs\r\n\tCandidate[] public candidates;\r\n\r\n\t/*\r\n\t *This function creates a new election which requires two arguements electionname and voting duration\r\n\t * @param {bytes32} election\r\n\t * name of the election\r\n\t *@param {uint} duration\r\n\t *\r\n\t */\r\n\tfunction createElection(bytes32 election, bytes32 desc, uint duration) public  {\r\n\t\tdelete candidates;\r\n\t\tdeleteAllVoters();\r\n\t\tdelete voterIndex;\r\n\t\telectionName = election;\r\n\t\tvotingdeadline = block.timestamp + (duration * 1 minutes);\r\n\t\telectionDesc = desc;\r\n\t}\r\n\r\n\t/*\r\n\t *This function is used to retrieve the election  from the blockchain which returs a string . a helper func called bytes32ToString is used here to convert bytes32 to string \r\n\t *@return {string} elecName\r\n\t * name of an election\r\n\t */\r\n\tfunction getElectionName() public view  returns(string memory elecName) {\r\n\t\telecName = bytes32ToString(electionName);\r\n\t}\r\n\t\r\n\tfunction getElectionDesc() public view returns(string memory elecDesc) {\r\n\t\telecDesc = bytes32ToString(electionDesc);\r\n\t}\r\n\r\n\t/*\r\n\t *This getter function is used to get the voting deadline,\r\n\t *\r\n\t */\r\n\tfunction getVotingDeadline() public view returns(uint) {\r\n\t\treturn votingdeadline;\r\n\t}\r\n\r\n\t/*\r\n\t *This is a helper function which is used to convert the given bytes32 to string which is later required when we want to retrieve the output as a string \r\n\t *@param {bytes32} x\r\n\t * any bytes32 character\r\n\t *@return {string}\r\n\t */\r\n\tfunction bytes32ToString(bytes32 x) public pure returns(string memory) {\r\n\t\tbytes memory bytesString = new bytes(32);\r\n\t\tuint charCount = 0;\r\n\t\tfor (uint j = 0; j < 32; j++) {\r\n\t\t\tbyte char = byte(bytes32(uint(x) * 2 ** (8 * j)));\r\n\t\t\tif (char != 0) {\r\n\t\t\t\tbytesString[charCount] = char;\r\n\t\t\t\tcharCount++;\r\n\t\t\t}\r\n\t\t}\r\n\t\tbytes memory bytesStringTrimmed = new bytes(charCount);\r\n\t\tfor (uint j = 0; j < charCount; j++) {\r\n\t\t\tbytesStringTrimmed[j] = bytesString[j];\r\n\t\t}\r\n\t\treturn string(bytesStringTrimmed);\r\n\t}\r\n\r\n\t/*\r\n\t *This is a helper function which converts string to bytes32\r\n\t *@param {string memory} source\r\n\t *string data type \r\n\t *@return {bytes32} result\r\n\t *result in bytes32\r\n\t */\r\n\tfunction stringToBytes32(string memory source) public pure returns(bytes32 result) {\r\n\t\tassembly {\r\n\t\t\tresult := mload(add(source, 32))\r\n\t\t}\r\n\t}\r\n\r\n\t/*\r\n\t *This function is used to add candidates to the blockchin, which requires three arguements such as candidatename, partyname and party symbol image\r\n\t *@param {bytes32} candid\r\n\t *name of the candidate\r\n\t *@param {bytes32} symbol\r\n\t *symbol of an image\r\n\t *@param {bytes32} party\r\n\t *party name\r\n\t *@return {bytes32} c\r\n\t *a new Candidate object\r\n\t */\r\n\tfunction addCandidate(bytes32 candidateName, bytes32 partyName, string memory symbol) public  {\r\n\t\tcandidates.push(Candidate({\r\n\t\t\tname: candidateName,\r\n\t\t\tpartyName: partyName,\r\n\t\t\tpartySymbol: symbol,\r\n\t\t\tvoteCount: 0\r\n\t\t}));\r\n\t}\r\n\r\n\t/*\r\n\t *This function returns a number of candidates added to the blockchain\r\n\t *@return {uint256} length\r\n\t *the number of candidates added to the blockchain\r\n\t */\r\n\tfunction getCandidateLength() public view  returns(uint256 length) {\r\n\t\tlength = candidates.length;\r\n\t}\r\n\r\n\t/*\r\n\t *This function retrieves the name of the candidate , provided the index of a candidate and is converted to string\r\n\t *@param {uint} index\r\n\t *index of the candidate\r\n\t *@return {string} candid\r\n\t * name of the candidate\r\n\t */\r\n\tfunction getCandidate(uint index) public view  returns(string memory candid) {\r\n\t\tcandid = bytes32ToString(candidates[index].name);\r\n\r\n\t}\r\n\t/*\r\n\t *This function is retrieves the candidate party name from the blockchain and is converted to string\r\n\t *@param {uint} index\r\n\t *index of the candidate\r\n\t *@return {string} party\r\n\t *party name\r\n\t */\r\n\tfunction getCandidatePartyName(uint index) public view  returns(string memory party) {\r\n\t\tparty = bytes32ToString(candidates[index].partyName);\r\n\r\n\t}\r\n\r\n\t/*\r\n\t *This function is retrieves the candidate party symbol from the blockchain and is converted to string\r\n\t *@param {uint} index\r\n\t *index of the candidate\r\n\t *@return {string} symb\r\n\t *party symbol image\r\n\t */\r\n\tfunction getCandidatePartySymbol(uint index) public view  returns(string memory symb) {\r\n\t\tsymb = candidates[index].partySymbol;\r\n\r\n\t}\r\n\r\n\t/*\r\n\t *This function is used to retrieve the candidate details\r\n\t *@param {uint} index\r\n\t *index of the candidate\r\n\t *@return {string} candid\r\n\t *candidate name\r\n\t *@return {string} symb\r\n\t *symbol image\r\n\t */\r\n\tfunction getCandidateDetails(uint index) public view returns(string memory candidate, string memory partyName,  string memory  symb) {\r\n\t\tcandidate = bytes32ToString(candidates[index].name);\r\n\t\tpartyName = bytes32ToString(candidates[index].partyName);\r\n\t\tsymb = candidates[index].partySymbol;\r\n\r\n\t}\r\n\r\n\t\r\n\r\n\t/*\r\n\t *Admin only gives 'voter' right to vote on the ballot\r\n\t *@param {address} voter\r\n\t *address of the voter\r\n\t *\r\n\t */\r\n\tfunction giveRightToVote(address voter) public onlyAdmin {\r\n\t\trequire(msg.sender == admin);\r\n\t\trequire(!voters[voter].voted);\r\n\r\n\t\tvoters[voter].weight = 1;\r\n\t}\r\n\r\n\t/*\r\n\t *his function adds voters to the blockchain and Admin only have the rights to add the voters\r\n\t * @param {address} voter\r\n\t * address of the voter \r\n\t *\r\n\t */\r\n\tfunction addVoter(address voter) public  {\r\n\t\tbool exist = voterExist(voter); \r\n\t\tif(!exist) {\r\n\t\t\tvoterIndex.push(voter);\r\n\t\t}\r\n\t}\r\n\r\n\tfunction voterExist(address voter) public view returns(bool) {\r\n\t\tfor(uint i=0; i< voterIndex.length; i++) {\r\n\t\t\tif(voterIndex[i] == voter){\r\n\t\t\t\treturn true;\r\n\t\t\t}\r\n\t\t}\r\n\t\treturn false;\r\n\t}\r\n\r\n\tfunction deleteAllVoters() public   {\r\n\t\tfor(uint i=0; i<voterIndex.length; i++) {\r\n\t\t\tif(voterExist(voterIndex[i])) {\r\n\t\t\t\tdelete voters[voterIndex[i]];\r\n\t\t\t}\r\n\t\t}\r\n\t}\r\n\r\n\tfunction getVoter(uint index) public view returns (address) {\r\n\t\treturn voterIndex[index];\r\n\t}\r\n\r\n\tfunction getVotersLength() public view returns(uint votersLength) {\r\n\t\tvotersLength = voterIndex.length;\r\n\t}\r\n\r\n\t/*\r\n\t *This function checks if candidate already exist\r\n\t * @param {bytes32} candidate\r\n\t * candidate name in bytes32\r\n\t *@return {bool}\r\n\t *a boolean value\r\n\t */\r\n\tfunction validCandidate(bytes32 candidate) public view returns(bool) {\r\n\t\tfor (uint i = 0; i < candidates.length; i++) {\r\n\t\t\tif (candidates[i].name == candidate) {\r\n\t\t\t\treturn true;\r\n\t\t\t}\r\n\t\t}\r\n\t\treturn false;\r\n\t}\r\n\r\n\t/*\r\n\t *This function is used to commit vote to their preferred candidate \r\n\t * @param {bytes32} candidateName\r\n\t * candidate name\r\n\t *@return {bool} check\r\n\t *boolean value\r\n\t */\r\n\tfunction vote(bytes32 candidateName) public {\r\n\t\tVoter storage sender = voters[msg.sender];\r\n\t\t\r\n\t\trequire(block.timestamp < votingdeadline, 'voting period ended already');\r\n\t\trequire(!sender.voted);\r\n\r\n\t\tsender.voted = true;\r\n\t\tsender.weight = 1;\r\n\r\n\t\tfor (uint i = 0; i < candidates.length; i++) {\r\n\t\t\tif (candidates[i].name == candidateName) {\r\n\t\t\t\tcandidates[i].voteCount += sender.weight;\r\n\t\t\t}\r\n\t\t}\r\n\t\t\t\r\n\t}\r\n\r\n\r\n\t/*\r\n\t *This function gets the number of vote count of each candidate on the basis of their index\r\n\t *@param {uint} index\r\n\t *index of the candidate\r\n\t *@return {uint} voteCount\r\n\t *the number of commited vote of each candidate\r\n\t */\r\n\tfunction getCandidateVoteCount(uint index) public view  returns(uint voteCount) {\r\n\t\treturn candidates[index].voteCount;\r\n\t}\r\n\r\n\t/*\r\n\t/*This function retrieves the total numbers of committed votes to all the candidates\r\n\t*@return {uint} count\r\n\t*toal number of accumulated votes of all the candidates\r\n\t*/\r\n\tfunction getTotalVotes() public view  returns(uint count) {\r\n\t\tcount = 0;\r\n\t\tfor (uint i = 0; i < candidates.length; i++) {\r\n\t\t\tcount += candidates[i].voteCount;\r\n\t\t}\r\n\t}\r\n\r\n\t/*\r\n\t *This function returns true if voters has already voted to make sure that the voters are not allowed to vote twice\r\n\t *@param {address} voter\r\n\t *address of the voter\r\n\t *@return {bool} voted\r\n\t *boolean value\r\n\t */\r\n\tfunction getVoted(address voter) public view returns(bool voted) {\r\n\t\tif (voters[voter].voted == true) {\r\n\t\t\treturn true;\r\n\t\t}\r\n\t\treturn false;\r\n\t}\r\n\r\n\t/*\r\n\t *Automatic calculation of winning candidate with all votes of the voters\r\n\t * @return {uint} winningCandidate\r\n\t * the highest number of votes\r\n\t *\r\n\t */\r\n\r\n\tfunction winningCandidate() public view  returns(uint winner) {\r\n\t\tuint winningVoteCount = 0;\r\n\t\tfor (uint i = 0; i < candidates.length; i++) {\r\n\t\t\tif (candidates[i].voteCount > winningVoteCount) {\r\n\t\t\t\twinningVoteCount = candidates[i].voteCount;\r\n\t\t\t\twinner = i;\r\n\t\t\t}\r\n\t\t}\r\n\t}\r\n\t/*\r\n\t *This is a readonly function which returns the name of the winnner candidate\r\n\t *@return {string} winnerName\r\n\t *winner name\r\n\t */\r\n\tfunction winnerName() public view  returns(string memory winner) {\r\n\t\twinner = bytes32ToString(candidates[winningCandidate()].name);\r\n\t}\r\n\r\n}",
  "sourcePath": "C:/Users/yubi/Desktop/kryptovote-react/contracts/Ballot.sol",
  "compiler": {
    "name": "solc",
    "version": "0.7.0+commit.9e61f92b.Emscripten.clang"
  },
  "schemaVersion": "3.2.3",
  "updatedAt": "2020-09-14T03:36:46.260Z",
  "networkType": "ethereum",
  "devdoc": {
    "kind": "dev",
    "methods": {},
    "version": 1
  },
  "userdoc": {
    "kind": "user",
    "methods": {},
    "version": 1
  }
}