{
  "contractName": "Ballot",
  "abi": [
    {
      "inputs": [],
      "stateMutability": "nonpayable",
      "type": "constructor"
    },
    {
      "inputs": [],
      "name": "admin",
      "outputs": [
        {
          "internalType": "address",
          "name": "",
          "type": "address"
        }
      ],
      "stateMutability": "view",
      "type": "function",
      "constant": true
    },
    {
      "inputs": [
        {
          "internalType": "uint256",
          "name": "",
          "type": "uint256"
        }
      ],
      "name": "candidates",
      "outputs": [
        {
          "internalType": "bytes32",
          "name": "name",
          "type": "bytes32"
        },
        {
          "internalType": "uint256",
          "name": "voteCount",
          "type": "uint256"
        },
        {
          "internalType": "bytes32",
          "name": "partyName",
          "type": "bytes32"
        },
        {
          "internalType": "string",
          "name": "partySymbol",
          "type": "string"
        }
      ],
      "stateMutability": "view",
      "type": "function",
      "constant": true
    },
    {
      "inputs": [
        {
          "internalType": "address",
          "name": "",
          "type": "address"
        }
      ],
      "name": "voters",
      "outputs": [
        {
          "internalType": "uint256",
          "name": "weight",
          "type": "uint256"
        },
        {
          "internalType": "bool",
          "name": "voted",
          "type": "bool"
        }
      ],
      "stateMutability": "view",
      "type": "function",
      "constant": true
    },
    {
      "inputs": [
        {
          "internalType": "bytes32",
          "name": "election",
          "type": "bytes32"
        },
        {
          "internalType": "bytes32",
          "name": "desc",
          "type": "bytes32"
        },
        {
          "internalType": "uint256",
          "name": "duration",
          "type": "uint256"
        }
      ],
      "name": "createElection",
      "outputs": [],
      "stateMutability": "nonpayable",
      "type": "function"
    },
    {
      "inputs": [],
      "name": "getElectionName",
      "outputs": [
        {
          "internalType": "string",
          "name": "elecName",
          "type": "string"
        }
      ],
      "stateMutability": "view",
      "type": "function",
      "constant": true
    },
    {
      "inputs": [],
      "name": "getElectionDesc",
      "outputs": [
        {
          "internalType": "string",
          "name": "elecDesc",
          "type": "string"
        }
      ],
      "stateMutability": "view",
      "type": "function",
      "constant": true
    },
    {
      "inputs": [],
      "name": "getVotingDeadline",
      "outputs": [
        {
          "internalType": "uint256",
          "name": "",
          "type": "uint256"
        }
      ],
      "stateMutability": "view",
      "type": "function",
      "constant": true
    },
    {
      "inputs": [],
      "name": "checkVotingStatus",
      "outputs": [
        {
          "internalType": "bool",
          "name": "",
          "type": "bool"
        }
      ],
      "stateMutability": "view",
      "type": "function",
      "constant": true
    },
    {
      "inputs": [],
      "name": "isAllowed",
      "outputs": [
        {
          "internalType": "bool",
          "name": "",
          "type": "bool"
        }
      ],
      "stateMutability": "view",
      "type": "function",
      "constant": true
    },
    {
      "inputs": [
        {
          "internalType": "bytes32",
          "name": "x",
          "type": "bytes32"
        }
      ],
      "name": "bytes32ToString",
      "outputs": [
        {
          "internalType": "string",
          "name": "",
          "type": "string"
        }
      ],
      "stateMutability": "pure",
      "type": "function",
      "constant": true
    },
    {
      "inputs": [
        {
          "internalType": "string",
          "name": "source",
          "type": "string"
        }
      ],
      "name": "stringToBytes32",
      "outputs": [
        {
          "internalType": "bytes32",
          "name": "result",
          "type": "bytes32"
        }
      ],
      "stateMutability": "pure",
      "type": "function",
      "constant": true
    },
    {
      "inputs": [
        {
          "internalType": "bytes32",
          "name": "candidateName",
          "type": "bytes32"
        },
        {
          "internalType": "bytes32",
          "name": "partyName",
          "type": "bytes32"
        },
        {
          "internalType": "string",
          "name": "symbol",
          "type": "string"
        }
      ],
      "name": "addCandidate",
      "outputs": [],
      "stateMutability": "nonpayable",
      "type": "function"
    },
    {
      "inputs": [],
      "name": "getCandidateLength",
      "outputs": [
        {
          "internalType": "uint256",
          "name": "length",
          "type": "uint256"
        }
      ],
      "stateMutability": "view",
      "type": "function",
      "constant": true
    },
    {
      "inputs": [
        {
          "internalType": "uint256",
          "name": "index",
          "type": "uint256"
        }
      ],
      "name": "getCandidate",
      "outputs": [
        {
          "internalType": "string",
          "name": "candid",
          "type": "string"
        }
      ],
      "stateMutability": "view",
      "type": "function",
      "constant": true
    },
    {
      "inputs": [
        {
          "internalType": "uint256",
          "name": "index",
          "type": "uint256"
        }
      ],
      "name": "getCandidatePartyName",
      "outputs": [
        {
          "internalType": "string",
          "name": "party",
          "type": "string"
        }
      ],
      "stateMutability": "view",
      "type": "function",
      "constant": true
    },
    {
      "inputs": [
        {
          "internalType": "uint256",
          "name": "index",
          "type": "uint256"
        }
      ],
      "name": "getCandidatePartySymbol",
      "outputs": [
        {
          "internalType": "string",
          "name": "symb",
          "type": "string"
        }
      ],
      "stateMutability": "view",
      "type": "function",
      "constant": true
    },
    {
      "inputs": [
        {
          "internalType": "uint256",
          "name": "index",
          "type": "uint256"
        }
      ],
      "name": "getCandidateDetails",
      "outputs": [
        {
          "internalType": "string",
          "name": "candidate",
          "type": "string"
        },
        {
          "internalType": "string",
          "name": "partyName",
          "type": "string"
        },
        {
          "internalType": "string",
          "name": "symb",
          "type": "string"
        }
      ],
      "stateMutability": "view",
      "type": "function",
      "constant": true
    },
    {
      "inputs": [
        {
          "internalType": "address",
          "name": "voter",
          "type": "address"
        }
      ],
      "name": "giveRightToVote",
      "outputs": [],
      "stateMutability": "nonpayable",
      "type": "function"
    },
    {
      "inputs": [
        {
          "internalType": "address",
          "name": "voter",
          "type": "address"
        }
      ],
      "name": "addVoter",
      "outputs": [],
      "stateMutability": "nonpayable",
      "type": "function"
    },
    {
      "inputs": [
        {
          "internalType": "address",
          "name": "voter",
          "type": "address"
        }
      ],
      "name": "voterExist",
      "outputs": [
        {
          "internalType": "bool",
          "name": "",
          "type": "bool"
        }
      ],
      "stateMutability": "view",
      "type": "function",
      "constant": true
    },
    {
      "inputs": [],
      "name": "deleteAllVoters",
      "outputs": [],
      "stateMutability": "nonpayable",
      "type": "function"
    },
    {
      "inputs": [
        {
          "internalType": "uint256",
          "name": "index",
          "type": "uint256"
        }
      ],
      "name": "getVoter",
      "outputs": [
        {
          "internalType": "address",
          "name": "",
          "type": "address"
        }
      ],
      "stateMutability": "view",
      "type": "function",
      "constant": true
    },
    {
      "inputs": [],
      "name": "getVotersLength",
      "outputs": [
        {
          "internalType": "uint256",
          "name": "votersLength",
          "type": "uint256"
        }
      ],
      "stateMutability": "view",
      "type": "function",
      "constant": true
    },
    {
      "inputs": [
        {
          "internalType": "bytes32",
          "name": "candidate",
          "type": "bytes32"
        }
      ],
      "name": "validCandidate",
      "outputs": [
        {
          "internalType": "bool",
          "name": "",
          "type": "bool"
        }
      ],
      "stateMutability": "view",
      "type": "function",
      "constant": true
    },
    {
      "inputs": [
        {
          "internalType": "bytes32",
          "name": "candidateName",
          "type": "bytes32"
        }
      ],
      "name": "vote",
      "outputs": [],
      "stateMutability": "nonpayable",
      "type": "function"
    },
    {
      "inputs": [
        {
          "internalType": "uint256",
          "name": "index",
          "type": "uint256"
        }
      ],
      "name": "getCandidateVoteCount",
      "outputs": [
        {
          "internalType": "uint256",
          "name": "voteCount",
          "type": "uint256"
        }
      ],
      "stateMutability": "view",
      "type": "function",
      "constant": true
    },
    {
      "inputs": [],
      "name": "getTotalVotes",
      "outputs": [
        {
          "internalType": "uint256",
          "name": "count",
          "type": "uint256"
        }
      ],
      "stateMutability": "view",
      "type": "function",
      "constant": true
    },
    {
      "inputs": [
        {
          "internalType": "address",
          "name": "voter",
          "type": "address"
        }
      ],
      "name": "getVoted",
      "outputs": [
        {
          "internalType": "bool",
          "name": "voted",
          "type": "bool"
        }
      ],
      "stateMutability": "view",
      "type": "function",
      "constant": true
    },
    {
      "inputs": [],
      "name": "winningCandidate",
      "outputs": [
        {
          "internalType": "uint256",
          "name": "winner",
          "type": "uint256"
        }
      ],
      "stateMutability": "view",
      "type": "function",
      "constant": true
    },
    {
      "inputs": [],
      "name": "winnerName",
      "outputs": [
        {
          "internalType": "string",
          "name": "winner",
          "type": "string"
        }
      ],
      "stateMutability": "view",
      "type": "function",
      "constant": true
    }
  ],
  "bytecode": "0x608060405234801561001057600080fd5b5033600260006101000a81548173ffffffffffffffffffffffffffffffffffffffff021916908373ffffffffffffffffffffffffffffffffffffffff160217905550611d01806100616000396000f3fe608060405234801561001057600080fd5b50600436106101da5760003560e01c8063a21fbc9211610104578063d07bff0c116100a2578063f4ab9adf11610071578063f4ab9adf14610d3c578063f7522a8314610d80578063f851a44014610d9e578063fffa7ae414610dd2576101da565b8063d07bff0c14610c25578063d28178d714610c7d578063de2237d314610c9b578063e2ba53f014610cb9576101da565b8063a69beaba116100de578063a69beaba14610a8c578063b315c59714610aba578063b93244fd14610afc578063cfb5192814610b56576101da565b8063a21fbc92146109c9578063a3ec138d146109e9578063a40858a114610a4a576101da565b8063392e66781161017c5780638ec77d5d1161014b5780638ec77d5d146108195780639201de55146108c05780639a0e7d66146109675780639e7b8d6114610985576101da565b8063392e6678146106295780633e15cd331461066d5780635aa82fbe1461073c578063666ae43014610796576101da565b806327f9fd50116101b857806327f9fd50146102c457806330e7a79c146104435780633477ee2e146104c657806335b8e82014610582576101da565b806312c56989146101df5780631f7b8622146101ff5780632471de161461021d575b600080fd5b6101e7610ddc565b60405180821515815260200191505060405180910390f35b610207610df8565b6040518082815260200191505060405180910390f35b6102496004803603602081101561023357600080fd5b8101908080359060200190929190505050610e02565b6040518080602001828103825283818151815260200191508051906020019080838360005b8381101561028957808201518184015260208101905061026e565b50505050905090810190601f1680156102b65780820380516001836020036101000a031916815260200191505b509250505060405180910390f35b6102f0600480360360208110156102da57600080fd5b8101908080359060200190929190505050610e32565b60405180806020018060200180602001848103845287818151815260200191508051906020019080838360005b8381101561033857808201518184015260208101905061031d565b50505050905090810190601f1680156103655780820380516001836020036101000a031916815260200191505b50848103835286818151815260200191508051906020019080838360005b8381101561039e578082015181840152602081019050610383565b50505050905090810190601f1680156103cb5780820380516001836020036101000a031916815260200191505b50848103825285818151815260200191508051906020019080838360005b838110156104045780820151818401526020810190506103e9565b50505050905090810190601f1680156104315780820380516001836020036101000a031916815260200191505b50965050505050505060405180910390f35b61044b610f49565b6040518080602001828103825283818151815260200191508051906020019080838360005b8381101561048b578082015181840152602081019050610470565b50505050905090810190601f1680156104b85780820380516001836020036101000a031916815260200191505b509250505060405180910390f35b6104f2600480360360208110156104dc57600080fd5b8101908080359060200190929190505050610f5b565b6040518085815260200184815260200183815260200180602001828103825283818151815260200191508051906020019080838360005b83811015610544578082015181840152602081019050610529565b50505050905090810190601f1680156105715780820380516001836020036101000a031916815260200191505b509550505050505060405180910390f35b6105ae6004803603602081101561059857600080fd5b8101908080359060200190929190505050611030565b6040518080602001828103825283818151815260200191508051906020019080838360005b838110156105ee5780820151818401526020810190506105d3565b50505050905090810190601f16801561061b5780820380516001836020036101000a031916815260200191505b509250505060405180910390f35b6106556004803603602081101561063f57600080fd5b8101908080359060200190929190505050611060565b60405180821515815260200191505060405180910390f35b61073a6004803603606081101561068357600080fd5b810190808035906020019092919080359060200190929190803590602001906401000000008111156106b457600080fd5b8201836020820111156106c657600080fd5b803590602001918460018302840111640100000000831117156106e857600080fd5b91908080601f016020809104026020016040519081016040528093929190818152602001838380828437600081840152601f19601f8201169050808301925050505050505091929192905050506110bd565b005b61077e6004803603602081101561075257600080fd5b81019080803573ffffffffffffffffffffffffffffffffffffffff16906020019092919050505061114c565b60405180821515815260200191505060405180910390f35b61079e6111bd565b6040518080602001828103825283818151815260200191508051906020019080838360005b838110156107de5780820151818401526020810190506107c3565b50505050905090810190601f16801561080b5780820380516001836020036101000a031916815260200191505b509250505060405180910390f35b6108456004803603602081101561082f57600080fd5b81019080803590602001909291905050506111cf565b6040518080602001828103825283818151815260200191508051906020019080838360005b8381101561088557808201518184015260208101905061086a565b50505050905090810190601f1680156108b25780820380516001836020036101000a031916815260200191505b509250505060405180910390f35b6108ec600480360360208110156108d657600080fd5b810190808035906020019092919050505061128f565b6040518080602001828103825283818151815260200191508051906020019080838360005b8381101561092c578082015181840152602081019050610911565b50505050905090810190601f1680156109595780820380516001836020036101000a031916815260200191505b509250505060405180910390f35b61096f611446565b6040518082815260200191505060405180910390f35b6109c76004803603602081101561099b57600080fd5b81019080803573ffffffffffffffffffffffffffffffffffffffff16906020019092919050505061148b565b005b6109d16115e4565b60405180821515815260200191505060405180910390f35b610a2b600480360360208110156109ff57600080fd5b81019080803573ffffffffffffffffffffffffffffffffffffffff169060200190929190505050611601565b6040518083815260200182151581526020019250505060405180910390f35b610a8a60048036036060811015610a6057600080fd5b81019080803590602001909291908035906020019092919080359060200190929190505050611632565b005b610ab860048036036020811015610aa257600080fd5b8101908080359060200190929190505050611675565b005b610ae660048036036020811015610ad057600080fd5b81019080803590602001909291905050506117eb565b6040518082815260200191505060405180910390f35b610b3e60048036036020811015610b1257600080fd5b81019080803573ffffffffffffffffffffffffffffffffffffffff169060200190929190505050611813565b60405180821515815260200191505060405180910390f35b610c0f60048036036020811015610b6c57600080fd5b8101908080359060200190640100000000811115610b8957600080fd5b820183602082011115610b9b57600080fd5b80359060200191846001830284011164010000000083111715610bbd57600080fd5b91908080601f016020809104026020016040519081016040528093929190818152602001838380828437600081840152601f19601f8201169050808301925050505050505091929192905050506118b5565b6040518082815260200191505060405180910390f35b610c5160048036036020811015610c3b57600080fd5b81019080803590602001909291905050506118c3565b604051808273ffffffffffffffffffffffffffffffffffffffff16815260200191505060405180910390f35b610c85611904565b6040518082815260200191505060405180910390f35b610ca3611978565b6040518082815260200191505060405180910390f35b610cc1611985565b6040518080602001828103825283818151815260200191508051906020019080838360005b83811015610d01578082015181840152602081019050610ce6565b50505050905090810190601f168015610d2e5780820380516001836020036101000a031916815260200191505b509250505060405180910390f35b610d7e60048036036020811015610d5257600080fd5b81019080803573ffffffffffffffffffffffffffffffffffffffff1690602001909291905050506119ba565b005b610d88611a34565b6040518082815260200191505060405180910390f35b610da6611a41565b604051808273ffffffffffffffffffffffffffffffffffffffff16815260200191505060405180910390f35b610dda611a67565b005b60006003544210610df05760009050610df5565b600190505b90565b6000600354905090565b6060610e2b60068381548110610e1457fe5b90600052602060002090600402016002015461128f565b9050919050565b6060806060610e5e60068581548110610e4757fe5b90600052602060002090600402016000015461128f565b9250610e8760068581548110610e7057fe5b90600052602060002090600402016002015461128f565b915060068481548110610e9657fe5b90600052602060002090600402016003018054600181600116156101000203166002900480601f016020809104026020016040519081016040528092919081815260200182805460018160011615610100020316600290048015610f3b5780601f10610f1057610100808354040283529160200191610f3b565b820191906000526020600020905b815481529060010190602001808311610f1e57829003601f168201915b505050505090509193909250565b6060610f5660005461128f565b905090565b60068181548110610f6857fe5b9060005260206000209060040201600091509050806000015490806001015490806002015490806003018054600181600116156101000203166002900480601f0160208091040260200160405190810160405280929190818152602001828054600181600116156101000203166002900480156110265780601f10610ffb57610100808354040283529160200191611026565b820191906000526020600020905b81548152906001019060200180831161100957829003601f168201915b5050505050905084565b60606110596006838154811061104257fe5b90600052602060002090600402016000015461128f565b9050919050565b600080600090505b6006805490508110156110b257826006828154811061108357fe5b90600052602060002090600402016000015414156110a55760019150506110b8565b8080600101915050611068565b50600090505b919050565b60066040518060800160405280858152602001600081526020018481526020018381525090806001815401808255809150506001900390600052602060002090600402016000909190919091506000820151816000015560208201518160010155604082015181600201556060820151816003019080519060200190611144929190611b62565b505050505050565b600060011515600460008473ffffffffffffffffffffffffffffffffffffffff1673ffffffffffffffffffffffffffffffffffffffff16815260200190815260200160002060010160009054906101000a900460ff16151514156111b357600190506111b8565b600090505b919050565b60606111ca60015461128f565b905090565b6060600682815481106111de57fe5b90600052602060002090600402016003018054600181600116156101000203166002900480601f0160208091040260200160405190810160405280929190818152602001828054600181600116156101000203166002900480156112835780601f1061125857610100808354040283529160200191611283565b820191906000526020600020905b81548152906001019060200180831161126657829003601f168201915b50505050509050919050565b606080602067ffffffffffffffff811180156112aa57600080fd5b506040519080825280601f01601f1916602001820160405280156112dd5781602001600182028036833780820191505090505b5090506000805b60208110156113805760008160080260020a8660001c0260001b9050600060f81b817effffffffffffffffffffffffffffffffffffffffffffffffffffffffffffff191614611372578084848151811061133a57fe5b60200101907effffffffffffffffffffffffffffffffffffffffffffffffffffffffffffff1916908160001a90535082806001019350505b5080806001019150506112e4565b5060608167ffffffffffffffff8111801561139a57600080fd5b506040519080825280601f01601f1916602001820160405280156113cd5781602001600182028036833780820191505090505b50905060005b8281101561143a578381815181106113e757fe5b602001015160f81c60f81b8282815181106113fe57fe5b60200101907effffffffffffffffffffffffffffffffffffffffffffffffffffffffffffff1916908160001a90535080806001019150506113d3565b50809350505050919050565b6000805b600680549050811015611487576006818154811061146457fe5b90600052602060002090600402016001015482019150808060010191505061144a565b5090565b600260009054906101000a900473ffffffffffffffffffffffffffffffffffffffff1673ffffffffffffffffffffffffffffffffffffffff163373ffffffffffffffffffffffffffffffffffffffff16146114e557600080fd5b600260009054906101000a900473ffffffffffffffffffffffffffffffffffffffff1673ffffffffffffffffffffffffffffffffffffffff163373ffffffffffffffffffffffffffffffffffffffff161461153f57600080fd5b600460008273ffffffffffffffffffffffffffffffffffffffff1673ffffffffffffffffffffffffffffffffffffffff16815260200190815260200160002060010160009054906101000a900460ff161561159957600080fd5b6001600460008373ffffffffffffffffffffffffffffffffffffffff1673ffffffffffffffffffffffffffffffffffffffff1681526020019081526020016000206000018190555050565b60006003544210156115f957600190506115fe565b600090505b90565b60046020528060005260406000206000915090508060000154908060010160009054906101000a900460ff16905082565b600660006116409190611be2565b611648611a67565b600560006116569190611c06565b82600081905550603c8102420160038190555081600181905550505050565b6000600460003373ffffffffffffffffffffffffffffffffffffffff1673ffffffffffffffffffffffffffffffffffffffff1681526020019081526020016000209050600354421061172f576040517f08c379a000000000000000000000000000000000000000000000000000000000815260040180806020018281038252601b8152602001807f766f74696e6720706572696f6420656e64656420616c7265616479000000000081525060200191505060405180910390fd5b8060010160009054906101000a900460ff161561174b57600080fd5b60018160010160006101000a81548160ff0219169083151502179055506001816000018190555060005b6006805490508110156117e657826006828154811061179057fe5b90600052602060002090600402016000015414156117d9578160000154600682815481106117ba57fe5b9060005260206000209060040201600101600082825401925050819055505b8080600101915050611775565b505050565b6000600682815481106117fa57fe5b9060005260206000209060040201600101549050919050565b600080600090505b6005805490508110156118aa578273ffffffffffffffffffffffffffffffffffffffff166005828154811061184c57fe5b9060005260206000200160009054906101000a900473ffffffffffffffffffffffffffffffffffffffff1673ffffffffffffffffffffffffffffffffffffffff16141561189d5760019150506118b0565b808060010191505061181b565b50600090505b919050565b600060208201519050919050565b6000600582815481106118d257fe5b9060005260206000200160009054906101000a900473ffffffffffffffffffffffffffffffffffffffff169050919050565b6000806000905060005b60068054905081101561197357816006828154811061192957fe5b9060005260206000209060040201600101541115611966576006818154811061194e57fe5b90600052602060002090600402016001015491508092505b808060010191505061190e565b505090565b6000600580549050905090565b60606119b56006611994611904565b8154811061199e57fe5b90600052602060002090600402016000015461128f565b905090565b60006119c582611813565b905080611a30576005829080600181540180825580915050600190039060005260206000200160009091909190916101000a81548173ffffffffffffffffffffffffffffffffffffffff021916908373ffffffffffffffffffffffffffffffffffffffff1602179055505b5050565b6000600680549050905090565b600260009054906101000a900473ffffffffffffffffffffffffffffffffffffffff1681565b60005b600580549050811015611b5f57611ab760058281548110611a8757fe5b9060005260206000200160009054906101000a900473ffffffffffffffffffffffffffffffffffffffff16611813565b15611b52576004600060058381548110611acd57fe5b9060005260206000200160009054906101000a900473ffffffffffffffffffffffffffffffffffffffff1673ffffffffffffffffffffffffffffffffffffffff1673ffffffffffffffffffffffffffffffffffffffff1681526020019081526020016000206000808201600090556001820160006101000a81549060ff021916905550505b8080600101915050611a6a565b50565b828054600181600116156101000203166002900490600052602060002090601f016020900481019282601f10611ba357805160ff1916838001178555611bd1565b82800160010185558215611bd1579182015b82811115611bd0578251825591602001919060010190611bb5565b5b509050611bde9190611c27565b5090565b5080546000825560040290600052602060002090810190611c039190611c44565b50565b5080546000825590600052602060002090810190611c249190611c27565b50565b5b80821115611c40576000816000905550600101611c28565b5090565b5b80821115611c7f5760008082016000905560018201600090556002820160009055600382016000611c769190611c83565b50600401611c45565b5090565b50805460018160011615610100020316600290046000825580601f10611ca95750611cc8565b601f016020900490600052602060002090810190611cc79190611c27565b5b5056fea2646970667358221220fb24f0334be97da359deb3e8e162efd23e5733108f5d581222bb01ea97eb13f764736f6c63430007000033",
  "immutableReferences": {},
  "source": "// SPDX-License-Identifier: MIT\r\npragma solidity >=0.4.21 <=0.7.0;\r\n\r\n\r\ncontract Ballot {\r\n\r\n\t//Information about a voter\r\n\tstruct Voter {\r\n\t\tuint weight; //weight is amount of vote the voter can have\r\n\t\tbool voted; //true implies voter already voted\r\n\t}\r\n\r\n\t//Candidate type for a single candidate\r\n\r\n\tstruct Candidate {\r\n\t\tbytes32 name; // name up to 32 bytes\r\n\t\tuint voteCount; // total number of votes\r\n\t\tbytes32 partyName;\r\n\t\tstring partySymbol;\r\n\t}\r\n\r\n\tbytes32 electionName;\r\n\tbytes32 electionDesc;\r\n\taddress public admin;\r\n\tuint votingdeadline;\r\n\r\n\tconstructor() {\r\n\t\tadmin = msg.sender;\r\n\t}\r\n\r\n\t/*\r\n\t *This is a special type of func called modifier which is used to restrict the execution of certain transaction, where the admin only have the rights to do so\r\n\t *\r\n\t */\r\n\tmodifier onlyAdmin() {\r\n\t\trequire(msg.sender == admin);\r\n\t\t_;\r\n\t}\r\n\r\n\t\r\n\t//Mapping is used to store the voters detail on the basis of their address\r\n\tmapping(address => Voter) public voters;\r\n\taddress[] voterIndex;\r\n\r\n\t//Dynamnically-sized array of 'Candidate' structs\r\n\tCandidate[] public candidates;\r\n\r\n\t/*\r\n\t *This function creates a new election which requires two arguements electionname and voting duration\r\n\t * @param {bytes32} election\r\n\t * name of the election\r\n\t *@param {uint} duration\r\n\t *\r\n\t */\r\n\tfunction createElection(bytes32 election, bytes32 desc, uint duration) public  {\r\n\t\tdelete candidates;\r\n\t\tdeleteAllVoters();\r\n\t\tdelete voterIndex;\r\n\t\telectionName = election;\r\n\t\tvotingdeadline = block.timestamp + (duration * 1 minutes);\r\n\t\telectionDesc = desc;\r\n\t}\r\n\r\n\t/*\r\n\t *This function is used to retrieve the election  from the blockchain which returs a string . a helper func called bytes32ToString is used here to convert bytes32 to string \r\n\t *@return {string} elecName\r\n\t * name of an election\r\n\t */\r\n\tfunction getElectionName() public view  returns(string memory elecName) {\r\n\t\telecName = bytes32ToString(electionName);\r\n\t}\r\n\t\r\n\tfunction getElectionDesc() public view returns(string memory elecDesc) {\r\n\t\telecDesc = bytes32ToString(electionDesc);\r\n\t}\r\n\r\n\t/*\r\n\t *This getter function is used to get the voting deadline,\r\n\t *\r\n\t */\r\n\tfunction getVotingDeadline() public view returns(uint) {\r\n\t\treturn votingdeadline;\r\n\t}\r\n/*\r\n\t *This function is used to make sure that users are not allowed to vote after the voting period ends which will return false\r\n\t *\r\n\t */\r\n\tfunction checkVotingStatus() public view returns(bool) {\r\n\t\tif (block.timestamp >= votingdeadline) {\r\n\t\t\treturn false;\r\n\t\t}\r\n\t\treturn true;\r\n\t}\r\n\t/*\r\n\t *This function is used to make sure that users are not allowed to vote after the voting period ends which will return false\r\n\t *\r\n\t */\r\n\t//This function is used make sure that the users are not not allowed to  result unless the voting ends\r\n\tfunction isAllowed() public view returns(bool) {\r\n\t\tif (block.timestamp < votingdeadline) {\r\n\t\t\treturn true;\r\n\t\t}\r\n\t\treturn false;\r\n\t}\r\n\r\n\t/*\r\n\t *This is a helper function which is used to convert the given bytes32 to string which is later required when we want to retrieve the output as a string \r\n\t *@param {bytes32} x\r\n\t * any bytes32 character\r\n\t *@return {string}\r\n\t */\r\n\tfunction bytes32ToString(bytes32 x) public pure returns(string memory) {\r\n\t\tbytes memory bytesString = new bytes(32);\r\n\t\tuint charCount = 0;\r\n\t\tfor (uint j = 0; j < 32; j++) {\r\n\t\t\tbyte char = byte(bytes32(uint(x) * 2 ** (8 * j)));\r\n\t\t\tif (char != 0) {\r\n\t\t\t\tbytesString[charCount] = char;\r\n\t\t\t\tcharCount++;\r\n\t\t\t}\r\n\t\t}\r\n\t\tbytes memory bytesStringTrimmed = new bytes(charCount);\r\n\t\tfor (uint j = 0; j < charCount; j++) {\r\n\t\t\tbytesStringTrimmed[j] = bytesString[j];\r\n\t\t}\r\n\t\treturn string(bytesStringTrimmed);\r\n\t}\r\n\r\n\t/*\r\n\t *This is a helper function which converts string to bytes32\r\n\t *@param {string memory} source\r\n\t *string data type \r\n\t *@return {bytes32} result\r\n\t *result in bytes32\r\n\t */\r\n\tfunction stringToBytes32(string memory source) public pure returns(bytes32 result) {\r\n\t\tassembly {\r\n\t\t\tresult := mload(add(source, 32))\r\n\t\t}\r\n\t}\r\n\r\n\t/*\r\n\t *This function is used to add candidates to the blockchin, which requires three arguements such as candidatename, partyname and party symbol image\r\n\t *@param {bytes32} candid\r\n\t *name of the candidate\r\n\t *@param {bytes32} symbol\r\n\t *symbol of an image\r\n\t *@param {bytes32} party\r\n\t *party name\r\n\t *@return {bytes32} c\r\n\t *a new Candidate object\r\n\t */\r\n\tfunction addCandidate(bytes32 candidateName, bytes32 partyName, string memory symbol) public  {\r\n\t\tcandidates.push(Candidate({\r\n\t\t\tname: candidateName,\r\n\t\t\tpartyName: partyName,\r\n\t\t\tpartySymbol: symbol,\r\n\t\t\tvoteCount: 0\r\n\t\t}));\r\n\t}\r\n\r\n\t/*\r\n\t *This function returns a number of candidates added to the blockchain\r\n\t *@return {uint256} length\r\n\t *the number of candidates added to the blockchain\r\n\t */\r\n\tfunction getCandidateLength() public view  returns(uint256 length) {\r\n\t\tlength = candidates.length;\r\n\t}\r\n\r\n\t/*\r\n\t *This function retrieves the name of the candidate , provided the index of a candidate and is converted to string\r\n\t *@param {uint} index\r\n\t *index of the candidate\r\n\t *@return {string} candid\r\n\t * name of the candidate\r\n\t */\r\n\tfunction getCandidate(uint index) public view  returns(string memory candid) {\r\n\t\tcandid = bytes32ToString(candidates[index].name);\r\n\r\n\t}\r\n\t/*\r\n\t *This function is retrieves the candidate party name from the blockchain and is converted to string\r\n\t *@param {uint} index\r\n\t *index of the candidate\r\n\t *@return {string} party\r\n\t *party name\r\n\t */\r\n\tfunction getCandidatePartyName(uint index) public view  returns(string memory party) {\r\n\t\tparty = bytes32ToString(candidates[index].partyName);\r\n\r\n\t}\r\n\r\n\t/*\r\n\t *This function is retrieves the candidate party symbol from the blockchain and is converted to string\r\n\t *@param {uint} index\r\n\t *index of the candidate\r\n\t *@return {string} symb\r\n\t *party symbol image\r\n\t */\r\n\tfunction getCandidatePartySymbol(uint index) public view  returns(string memory symb) {\r\n\t\tsymb = candidates[index].partySymbol;\r\n\r\n\t}\r\n\r\n\t/*\r\n\t *This function is used to retrieve the candidate details\r\n\t *@param {uint} index\r\n\t *index of the candidate\r\n\t *@return {string} candid\r\n\t *candidate name\r\n\t *@return {string} symb\r\n\t *symbol image\r\n\t */\r\n\tfunction getCandidateDetails(uint index) public view returns(string memory candidate, string memory partyName,  string memory  symb) {\r\n\t\tcandidate = bytes32ToString(candidates[index].name);\r\n\t\tpartyName = bytes32ToString(candidates[index].partyName);\r\n\t\tsymb = candidates[index].partySymbol;\r\n\r\n\t}\r\n\r\n\t\r\n\r\n\t/*\r\n\t *Admin only gives 'voter' right to vote on the ballot\r\n\t *@param {address} voter\r\n\t *address of the voter\r\n\t *\r\n\t */\r\n\tfunction giveRightToVote(address voter) public onlyAdmin {\r\n\t\trequire(msg.sender == admin);\r\n\t\trequire(!voters[voter].voted);\r\n\r\n\t\tvoters[voter].weight = 1;\r\n\t}\r\n\r\n\t/*\r\n\t *his function adds voters to the blockchain and Admin only have the rights to add the voters\r\n\t * @param {address} voter\r\n\t * address of the voter \r\n\t *\r\n\t */\r\n\tfunction addVoter(address voter) public  {\r\n\t\tbool exist = voterExist(voter); \r\n\t\tif(!exist) {\r\n\t\t\tvoterIndex.push(voter);\r\n\t\t}\r\n\t}\r\n\r\n\tfunction voterExist(address voter) public view returns(bool) {\r\n\t\tfor(uint i=0; i< voterIndex.length; i++) {\r\n\t\t\tif(voterIndex[i] == voter){\r\n\t\t\t\treturn true;\r\n\t\t\t}\r\n\t\t}\r\n\t\treturn false;\r\n\t}\r\n\r\n\tfunction deleteAllVoters() public   {\r\n\t\tfor(uint i=0; i<voterIndex.length; i++) {\r\n\t\t\tif(voterExist(voterIndex[i])) {\r\n\t\t\t\tdelete voters[voterIndex[i]];\r\n\t\t\t}\r\n\t\t}\r\n\t}\r\n\r\n\tfunction getVoter(uint index) public view returns (address) {\r\n\t\treturn voterIndex[index];\r\n\t}\r\n\r\n\tfunction getVotersLength() public view returns(uint votersLength) {\r\n\t\tvotersLength = voterIndex.length;\r\n\t}\r\n\r\n\t/*\r\n\t *This function checks if candidate already exist\r\n\t * @param {bytes32} candidate\r\n\t * candidate name in bytes32\r\n\t *@return {bool}\r\n\t *a boolean value\r\n\t */\r\n\tfunction validCandidate(bytes32 candidate) public view returns(bool) {\r\n\t\tfor (uint i = 0; i < candidates.length; i++) {\r\n\t\t\tif (candidates[i].name == candidate) {\r\n\t\t\t\treturn true;\r\n\t\t\t}\r\n\t\t}\r\n\t\treturn false;\r\n\t}\r\n\r\n\t/*\r\n\t *This function is used to commit vote to their preferred candidate \r\n\t * @param {bytes32} candidateName\r\n\t * candidate name\r\n\t *@return {bool} check\r\n\t *boolean value\r\n\t */\r\n\tfunction vote(bytes32 candidateName) public {\r\n\t\tVoter storage sender = voters[msg.sender];\r\n\t\t\r\n\t\trequire(block.timestamp < votingdeadline, 'voting period ended already');\r\n\t\trequire(!sender.voted);\r\n\r\n\t\tsender.voted = true;\r\n\t\tsender.weight = 1;\r\n\r\n\t\tfor (uint i = 0; i < candidates.length; i++) {\r\n\t\t\tif (candidates[i].name == candidateName) {\r\n\t\t\t\tcandidates[i].voteCount += sender.weight;\r\n\t\t\t}\r\n\t\t}\r\n\t\t\t\r\n\t}\r\n\r\n\r\n\t/*\r\n\t *This function gets the number of vote count of each candidate on the basis of their index\r\n\t *@param {uint} index\r\n\t *index of the candidate\r\n\t *@return {uint} voteCount\r\n\t *the number of commited vote of each candidate\r\n\t */\r\n\tfunction getCandidateVoteCount(uint index) public view  returns(uint voteCount) {\r\n\t\treturn candidates[index].voteCount;\r\n\t}\r\n\r\n\t/*\r\n\t/*This function retrieves the total numbers of committed votes to all the candidates\r\n\t*@return {uint} count\r\n\t*toal number of accumulated votes of all the candidates\r\n\t*/\r\n\tfunction getTotalVotes() public view  returns(uint count) {\r\n\t\tcount = 0;\r\n\t\tfor (uint i = 0; i < candidates.length; i++) {\r\n\t\t\tcount += candidates[i].voteCount;\r\n\t\t}\r\n\t}\r\n\r\n\t/*\r\n\t *This function returns true if voters has already voted to make sure that the voters are not allowed to vote twice\r\n\t *@param {address} voter\r\n\t *address of the voter\r\n\t *@return {bool} voted\r\n\t *boolean value\r\n\t */\r\n\tfunction getVoted(address voter) public view returns(bool voted) {\r\n\t\tif (voters[voter].voted == true) {\r\n\t\t\treturn true;\r\n\t\t}\r\n\t\treturn false;\r\n\t}\r\n\r\n\t/*\r\n\t *Automatic calculation of winning candidate with all votes of the voters\r\n\t * @return {uint} winningCandidate\r\n\t * the highest number of votes\r\n\t *\r\n\t */\r\n\r\n\tfunction winningCandidate() public view  returns(uint winner) {\r\n\t\tuint winningVoteCount = 0;\r\n\t\tfor (uint i = 0; i < candidates.length; i++) {\r\n\t\t\tif (candidates[i].voteCount > winningVoteCount) {\r\n\t\t\t\twinningVoteCount = candidates[i].voteCount;\r\n\t\t\t\twinner = i;\r\n\t\t\t}\r\n\t\t}\r\n\t}\r\n\t/*\r\n\t *This is a readonly function which returns the name of the winnner candidate\r\n\t *@return {string} winnerName\r\n\t *winner name\r\n\t */\r\n\tfunction winnerName() public view  returns(string memory winner) {\r\n\t\twinner = bytes32ToString(candidates[winningCandidate()].name);\r\n\t}\r\n\r\n}",
  "sourcePath": "C:/Users/yubi/Desktop/kryptovote-react/contracts/Ballot.sol",
  "compiler": {
    "name": "solc",
    "version": "0.7.0+commit.9e61f92b.Emscripten.clang"
  },
  "schemaVersion": "3.2.3",
  "updatedAt": "2020-09-13T13:37:28.473Z",
  "networkType": "ethereum",
  "devdoc": {
    "kind": "dev",
    "methods": {},
    "version": 1
  },
  "userdoc": {
    "kind": "user",
    "methods": {},
    "version": 1
  }
}