{
  "contractName": "Ballot",
  "abi": [
    {
      "stateMutability": "nonpayable",
      "type": "fallback"
    },
    {
      "inputs": [
        {
          "internalType": "uint256",
          "name": "",
          "type": "uint256"
        }
      ],
      "name": "candidates",
      "outputs": [
        {
          "internalType": "bytes32",
          "name": "name",
          "type": "bytes32"
        },
        {
          "internalType": "uint256",
          "name": "voteCount",
          "type": "uint256"
        },
        {
          "internalType": "bytes32",
          "name": "partyName",
          "type": "bytes32"
        },
        {
          "internalType": "string",
          "name": "partySymbol",
          "type": "string"
        }
      ],
      "stateMutability": "view",
      "type": "function",
      "constant": true
    },
    {
      "inputs": [
        {
          "internalType": "address",
          "name": "",
          "type": "address"
        }
      ],
      "name": "voters",
      "outputs": [
        {
          "internalType": "uint256",
          "name": "weight",
          "type": "uint256"
        },
        {
          "internalType": "bool",
          "name": "voted",
          "type": "bool"
        },
        {
          "internalType": "uint256",
          "name": "vote",
          "type": "uint256"
        }
      ],
      "stateMutability": "view",
      "type": "function",
      "constant": true
    },
    {
      "inputs": [
        {
          "internalType": "uint256",
          "name": "duration",
          "type": "uint256"
        }
      ],
      "name": "setVotingDeadline",
      "outputs": [],
      "stateMutability": "nonpayable",
      "type": "function"
    },
    {
      "inputs": [],
      "name": "getVotingDeadline",
      "outputs": [
        {
          "internalType": "uint256",
          "name": "",
          "type": "uint256"
        }
      ],
      "stateMutability": "view",
      "type": "function",
      "constant": true
    },
    {
      "inputs": [],
      "name": "checkVotingStatus",
      "outputs": [
        {
          "internalType": "bool",
          "name": "",
          "type": "bool"
        }
      ],
      "stateMutability": "view",
      "type": "function",
      "constant": true
    },
    {
      "inputs": [],
      "name": "isAllowed",
      "outputs": [
        {
          "internalType": "bool",
          "name": "",
          "type": "bool"
        }
      ],
      "stateMutability": "view",
      "type": "function",
      "constant": true
    },
    {
      "inputs": [
        {
          "internalType": "bytes32",
          "name": "election",
          "type": "bytes32"
        },
        {
          "internalType": "bytes32",
          "name": "desc",
          "type": "bytes32"
        },
        {
          "internalType": "uint256",
          "name": "duration",
          "type": "uint256"
        }
      ],
      "name": "createElection",
      "outputs": [],
      "stateMutability": "nonpayable",
      "type": "function"
    },
    {
      "inputs": [],
      "name": "getElectionName",
      "outputs": [
        {
          "internalType": "string",
          "name": "elecName",
          "type": "string"
        }
      ],
      "stateMutability": "view",
      "type": "function",
      "constant": true
    },
    {
      "inputs": [],
      "name": "getElectionDesc",
      "outputs": [
        {
          "internalType": "string",
          "name": "elecDesc",
          "type": "string"
        }
      ],
      "stateMutability": "view",
      "type": "function",
      "constant": true
    },
    {
      "inputs": [
        {
          "internalType": "bytes32",
          "name": "x",
          "type": "bytes32"
        }
      ],
      "name": "bytes32ToString",
      "outputs": [
        {
          "internalType": "string",
          "name": "",
          "type": "string"
        }
      ],
      "stateMutability": "pure",
      "type": "function",
      "constant": true
    },
    {
      "inputs": [
        {
          "internalType": "bytes32",
          "name": "candidateName",
          "type": "bytes32"
        },
        {
          "internalType": "bytes32",
          "name": "partyName",
          "type": "bytes32"
        },
        {
          "internalType": "string",
          "name": "symbol",
          "type": "string"
        }
      ],
      "name": "addCandidate",
      "outputs": [],
      "stateMutability": "nonpayable",
      "type": "function"
    },
    {
      "inputs": [
        {
          "internalType": "string",
          "name": "candidateName",
          "type": "string"
        }
      ],
      "name": "addCandidateName",
      "outputs": [
        {
          "internalType": "bytes32",
          "name": "Name",
          "type": "bytes32"
        }
      ],
      "stateMutability": "pure",
      "type": "function",
      "constant": true
    },
    {
      "inputs": [],
      "name": "getCandidateLength",
      "outputs": [
        {
          "internalType": "uint256",
          "name": "length",
          "type": "uint256"
        }
      ],
      "stateMutability": "view",
      "type": "function",
      "constant": true
    },
    {
      "inputs": [
        {
          "internalType": "uint256",
          "name": "index",
          "type": "uint256"
        }
      ],
      "name": "getCandidate",
      "outputs": [
        {
          "internalType": "string",
          "name": "candid",
          "type": "string"
        }
      ],
      "stateMutability": "view",
      "type": "function",
      "constant": true
    },
    {
      "inputs": [
        {
          "internalType": "uint256",
          "name": "index",
          "type": "uint256"
        }
      ],
      "name": "getCandidatePartyName",
      "outputs": [
        {
          "internalType": "string",
          "name": "party",
          "type": "string"
        }
      ],
      "stateMutability": "view",
      "type": "function",
      "constant": true
    },
    {
      "inputs": [
        {
          "internalType": "uint256",
          "name": "index",
          "type": "uint256"
        }
      ],
      "name": "getCandidatePartySymbol",
      "outputs": [
        {
          "internalType": "string",
          "name": "symb",
          "type": "string"
        }
      ],
      "stateMutability": "view",
      "type": "function",
      "constant": true
    },
    {
      "inputs": [
        {
          "internalType": "uint256",
          "name": "index",
          "type": "uint256"
        }
      ],
      "name": "getCandidateDetails",
      "outputs": [
        {
          "internalType": "string",
          "name": "candidate",
          "type": "string"
        },
        {
          "internalType": "string",
          "name": "partyName",
          "type": "string"
        },
        {
          "internalType": "string",
          "name": "symb",
          "type": "string"
        }
      ],
      "stateMutability": "view",
      "type": "function",
      "constant": true
    },
    {
      "inputs": [
        {
          "internalType": "uint256",
          "name": "index",
          "type": "uint256"
        }
      ],
      "name": "getCandidateBytes",
      "outputs": [
        {
          "internalType": "bytes32",
          "name": "candid",
          "type": "bytes32"
        }
      ],
      "stateMutability": "view",
      "type": "function",
      "constant": true
    },
    {
      "inputs": [
        {
          "internalType": "string",
          "name": "source",
          "type": "string"
        }
      ],
      "name": "stringToBytes32",
      "outputs": [
        {
          "internalType": "bytes32",
          "name": "result",
          "type": "bytes32"
        }
      ],
      "stateMutability": "pure",
      "type": "function",
      "constant": true
    },
    {
      "inputs": [
        {
          "internalType": "address",
          "name": "voter",
          "type": "address"
        }
      ],
      "name": "giveRightToVote",
      "outputs": [],
      "stateMutability": "nonpayable",
      "type": "function"
    },
    {
      "inputs": [
        {
          "internalType": "address",
          "name": "voter",
          "type": "address"
        }
      ],
      "name": "addVoter",
      "outputs": [],
      "stateMutability": "nonpayable",
      "type": "function"
    },
    {
      "inputs": [
        {
          "internalType": "address",
          "name": "voter",
          "type": "address"
        }
      ],
      "name": "voterExist",
      "outputs": [
        {
          "internalType": "bool",
          "name": "",
          "type": "bool"
        }
      ],
      "stateMutability": "view",
      "type": "function",
      "constant": true
    },
    {
      "inputs": [
        {
          "internalType": "uint256",
          "name": "index",
          "type": "uint256"
        }
      ],
      "name": "getVoter",
      "outputs": [
        {
          "internalType": "address",
          "name": "",
          "type": "address"
        }
      ],
      "stateMutability": "view",
      "type": "function",
      "constant": true
    },
    {
      "inputs": [],
      "name": "getVotersLength",
      "outputs": [
        {
          "internalType": "uint256",
          "name": "votersLength",
          "type": "uint256"
        }
      ],
      "stateMutability": "view",
      "type": "function",
      "constant": true
    },
    {
      "inputs": [
        {
          "internalType": "bytes32",
          "name": "candidate",
          "type": "bytes32"
        }
      ],
      "name": "validCandidate",
      "outputs": [
        {
          "internalType": "bool",
          "name": "",
          "type": "bool"
        }
      ],
      "stateMutability": "view",
      "type": "function",
      "constant": true
    },
    {
      "inputs": [
        {
          "internalType": "bytes32",
          "name": "candidateName",
          "type": "bytes32"
        }
      ],
      "name": "vote",
      "outputs": [
        {
          "internalType": "bool",
          "name": "check",
          "type": "bool"
        }
      ],
      "stateMutability": "nonpayable",
      "type": "function"
    },
    {
      "inputs": [
        {
          "internalType": "uint256",
          "name": "index",
          "type": "uint256"
        }
      ],
      "name": "getCandidateVoteCount",
      "outputs": [
        {
          "internalType": "uint256",
          "name": "voteCount",
          "type": "uint256"
        }
      ],
      "stateMutability": "view",
      "type": "function",
      "constant": true
    },
    {
      "inputs": [],
      "name": "getTotalVotes",
      "outputs": [
        {
          "internalType": "uint256",
          "name": "count",
          "type": "uint256"
        }
      ],
      "stateMutability": "view",
      "type": "function",
      "constant": true
    },
    {
      "inputs": [
        {
          "internalType": "address",
          "name": "voter",
          "type": "address"
        }
      ],
      "name": "getVoted",
      "outputs": [
        {
          "internalType": "bool",
          "name": "voted",
          "type": "bool"
        }
      ],
      "stateMutability": "view",
      "type": "function",
      "constant": true
    },
    {
      "inputs": [
        {
          "internalType": "bytes32",
          "name": "candidate",
          "type": "bytes32"
        }
      ],
      "name": "totalVotesFor",
      "outputs": [
        {
          "internalType": "uint256",
          "name": "",
          "type": "uint256"
        }
      ],
      "stateMutability": "view",
      "type": "function",
      "constant": true
    },
    {
      "inputs": [],
      "name": "winningCandidate",
      "outputs": [
        {
          "internalType": "uint256",
          "name": "winner",
          "type": "uint256"
        }
      ],
      "stateMutability": "view",
      "type": "function",
      "constant": true
    },
    {
      "inputs": [],
      "name": "winnerName",
      "outputs": [
        {
          "internalType": "string",
          "name": "winner",
          "type": "string"
        }
      ],
      "stateMutability": "view",
      "type": "function",
      "constant": true
    },
    {
      "inputs": [],
      "name": "kill",
      "outputs": [],
      "stateMutability": "nonpayable",
      "type": "function"
    }
  ],
  "bytecode": "0x608060405234801561001057600080fd5b50611e7d806100206000396000f3fe608060405234801561001057600080fd5b50600436106101ff5760003560e01c80639a0e7d661161011a578063cfb51928116100ad578063de2237d31161007c578063de2237d314610e38578063e2ba53f014610e56578063edfbf7b614610ed9578063f4ab9adf14610f07578063f7522a8314610f4b57610200565b8063cfb5192814610cb1578063d07bff0c14610d80578063d164294e14610dd8578063d28178d714610e1a57610200565b8063a40858a1116100e9578063a40858a114610b8f578063a69beaba14610bd1578063b315c59714610c15578063b93244fd14610c5757610200565b80639a0e7d6614610aa55780639e7b8d6114610ac3578063a21fbc9214610b07578063a3ec138d14610b2757610200565b806335b8e820116101925780635aa82fbe116101615780635aa82fbe1461087a578063666ae430146108d45780638ec77d5d146109575780639201de55146109fe57610200565b806335b8e820146106b6578063392e66781461075d5780633e15cd33146107a157806341c0e1b51461087057610200565b806327f9fd50116101ce57806327f9fd50146103b65780632f265cf71461053557806330e7a79c146105775780633477ee2e146105fa57610200565b806312c56989146102025780631e1b7990146102225780631f7b8622146102f15780632471de161461030f57610200565b5b005b61020a610f69565b60405180821515815260200191505060405180910390f35b6102db6004803603602081101561023857600080fd5b810190808035906020019064010000000081111561025557600080fd5b82018360208201111561026757600080fd5b8035906020019184600183028401116401000000008311171561028957600080fd5b91908080601f016020809104026020016040519081016040528093929190818152602001838380828437600081840152601f19601f820116905080830192505050505050509192919290505050610f86565b6040518082815260200191505060405180910390f35b6102f9610f98565b6040518082815260200191505060405180910390f35b61033b6004803603602081101561032557600080fd5b8101908080359060200190929190505050610fa2565b6040518080602001828103825283818151815260200191508051906020019080838360005b8381101561037b578082015181840152602081019050610360565b50505050905090810190601f1680156103a85780820380516001836020036101000a031916815260200191505b509250505060405180910390f35b6103e2600480360360208110156103cc57600080fd5b8101908080359060200190929190505050610fd2565b60405180806020018060200180602001848103845287818151815260200191508051906020019080838360005b8381101561042a57808201518184015260208101905061040f565b50505050905090810190601f1680156104575780820380516001836020036101000a031916815260200191505b50848103835286818151815260200191508051906020019080838360005b83811015610490578082015181840152602081019050610475565b50505050905090810190601f1680156104bd5780820380516001836020036101000a031916815260200191505b50848103825285818151815260200191508051906020019080838360005b838110156104f65780820151818401526020810190506104db565b50505050905090810190601f1680156105235780820380516001836020036101000a031916815260200191505b50965050505050505060405180910390f35b6105616004803603602081101561054b57600080fd5b81019080803590602001909291905050506110e9565b6040518082815260200191505060405180910390f35b61057f611149565b6040518080602001828103825283818151815260200191508051906020019080838360005b838110156105bf5780820151818401526020810190506105a4565b50505050905090810190601f1680156105ec5780820380516001836020036101000a031916815260200191505b509250505060405180910390f35b6106266004803603602081101561061057600080fd5b810190808035906020019092919050505061115b565b6040518085815260200184815260200183815260200180602001828103825283818151815260200191508051906020019080838360005b8381101561067857808201518184015260208101905061065d565b50505050905090810190601f1680156106a55780820380516001836020036101000a031916815260200191505b509550505050505060405180910390f35b6106e2600480360360208110156106cc57600080fd5b8101908080359060200190929190505050611230565b6040518080602001828103825283818151815260200191508051906020019080838360005b83811015610722578082015181840152602081019050610707565b50505050905090810190601f16801561074f5780820380516001836020036101000a031916815260200191505b509250505060405180910390f35b6107896004803603602081101561077357600080fd5b8101908080359060200190929190505050611260565b60405180821515815260200191505060405180910390f35b61086e600480360360608110156107b757600080fd5b810190808035906020019092919080359060200190929190803590602001906401000000008111156107e857600080fd5b8201836020820111156107fa57600080fd5b8035906020019184600183028401116401000000008311171561081c57600080fd5b91908080601f016020809104026020016040519081016040528093929190818152602001838380828437600081840152601f19601f8201169050808301925050505050505091929192905050506112bd565b005b61087861134c565b005b6108bc6004803603602081101561089057600080fd5b81019080803573ffffffffffffffffffffffffffffffffffffffff1690602001909291905050506113df565b60405180821515815260200191505060405180910390f35b6108dc611450565b6040518080602001828103825283818151815260200191508051906020019080838360005b8381101561091c578082015181840152602081019050610901565b50505050905090810190601f1680156109495780820380516001836020036101000a031916815260200191505b509250505060405180910390f35b6109836004803603602081101561096d57600080fd5b8101908080359060200190929190505050611462565b6040518080602001828103825283818151815260200191508051906020019080838360005b838110156109c35780820151818401526020810190506109a8565b50505050905090810190601f1680156109f05780820380516001836020036101000a031916815260200191505b509250505060405180910390f35b610a2a60048036036020811015610a1457600080fd5b8101908080359060200190929190505050611522565b6040518080602001828103825283818151815260200191508051906020019080838360005b83811015610a6a578082015181840152602081019050610a4f565b50505050905090810190601f168015610a975780820380516001836020036101000a031916815260200191505b509250505060405180910390f35b610aad6116d9565b6040518082815260200191505060405180910390f35b610b0560048036036020811015610ad957600080fd5b81019080803573ffffffffffffffffffffffffffffffffffffffff16906020019092919050505061171e565b005b610b0f611878565b60405180821515815260200191505060405180910390f35b610b6960048036036020811015610b3d57600080fd5b81019080803573ffffffffffffffffffffffffffffffffffffffff169060200190929190505050611895565b604051808481526020018315158152602001828152602001935050505060405180910390f35b610bcf60048036036060811015610ba557600080fd5b810190808035906020019092919080359060200190929190803590602001909291905050506118cc565b005b610bfd60048036036020811015610be757600080fd5b81019080803590602001909291905050506118f9565b60405180821515815260200191505060405180910390f35b610c4160048036036020811015610c2b57600080fd5b8101908080359060200190929190505050611a05565b6040518082815260200191505060405180910390f35b610c9960048036036020811015610c6d57600080fd5b81019080803573ffffffffffffffffffffffffffffffffffffffff169060200190929190505050611a2d565b60405180821515815260200191505060405180910390f35b610d6a60048036036020811015610cc757600080fd5b8101908080359060200190640100000000811115610ce457600080fd5b820183602082011115610cf657600080fd5b80359060200191846001830284011164010000000083111715610d1857600080fd5b91908080601f016020809104026020016040519081016040528093929190818152602001838380828437600081840152601f19601f820116905080830192505050505050509192919290505050611acf565b6040518082815260200191505060405180910390f35b610dac60048036036020811015610d9657600080fd5b8101908080359060200190929190505050611add565b604051808273ffffffffffffffffffffffffffffffffffffffff16815260200191505060405180910390f35b610e0460048036036020811015610dee57600080fd5b8101908080359060200190929190505050611b1e565b6040518082815260200191505060405180910390f35b610e22611b46565b6040518082815260200191505060405180910390f35b610e40611bba565b6040518082815260200191505060405180910390f35b610e5e611bc7565b6040518080602001828103825283818151815260200191508051906020019080838360005b83811015610e9e578082015181840152602081019050610e83565b50505050905090810190601f168015610ecb5780820380516001836020036101000a031916815260200191505b509250505060405180910390f35b610f0560048036036020811015610eef57600080fd5b8101908080359060200190929190505050611bfc565b005b610f4960048036036020811015610f1d57600080fd5b81019080803573ffffffffffffffffffffffffffffffffffffffff169060200190929190505050611c0b565b005b610f53611cf2565b6040518082815260200191505060405180910390f35b6000600354421115610f7e5760009050610f83565b600190505b90565b6000610f9182611acf565b9050919050565b6000600354905090565b6060610fcb60068381548110610fb457fe5b906000526020600020906004020160020154611522565b9050919050565b6060806060610ffe60068581548110610fe757fe5b906000526020600020906004020160000154611522565b92506110276006858154811061101057fe5b906000526020600020906004020160020154611522565b91506006848154811061103657fe5b90600052602060002090600402016003018054600181600116156101000203166002900480601f0160208091040260200160405190810160405280929190818152602001828054600181600116156101000203166002900480156110db5780601f106110b0576101008083540402835291602001916110db565b820191906000526020600020905b8154815290600101906020018083116110be57829003601f168201915b505050505090509193909250565b600080600090505b60068054905081101561114257826006828154811061110c57fe5b90600052602060002090600402016000015414156111355761112d81611a05565b915050611144565b80806001019150506110f1565b505b919050565b6060611156600054611522565b905090565b6006818154811061116857fe5b9060005260206000209060040201600091509050806000015490806001015490806002015490806003018054600181600116156101000203166002900480601f0160208091040260200160405190810160405280929190818152602001828054600181600116156101000203166002900480156112265780601f106111fb57610100808354040283529160200191611226565b820191906000526020600020905b81548152906001019060200180831161120957829003601f168201915b5050505050905084565b60606112596006838154811061124257fe5b906000526020600020906004020160000154611522565b9050919050565b600080600090505b6006805490508110156112b257826006828154811061128357fe5b90600052602060002090600402016000015414156112a55760019150506112b8565b8080600101915050611268565b50600090505b919050565b60066040518060800160405280858152602001600081526020018481526020018381525090806001815401808255809150506001900390600052602060002090600402016000909190919091506000820151816000015560208201518160010155604082015181600201556060820151816003019080519060200190611344929190611cff565b505050505050565b600260009054906101000a900473ffffffffffffffffffffffffffffffffffffffff1673ffffffffffffffffffffffffffffffffffffffff163373ffffffffffffffffffffffffffffffffffffffff1614156113dd57600260009054906101000a900473ffffffffffffffffffffffffffffffffffffffff1673ffffffffffffffffffffffffffffffffffffffff16ff5b565b600060011515600460008473ffffffffffffffffffffffffffffffffffffffff1673ffffffffffffffffffffffffffffffffffffffff16815260200190815260200160002060010160009054906101000a900460ff1615151415611446576001905061144b565b600090505b919050565b606061145d600154611522565b905090565b60606006828154811061147157fe5b90600052602060002090600402016003018054600181600116156101000203166002900480601f0160208091040260200160405190810160405280929190818152602001828054600181600116156101000203166002900480156115165780601f106114eb57610100808354040283529160200191611516565b820191906000526020600020905b8154815290600101906020018083116114f957829003601f168201915b50505050509050919050565b606080602067ffffffffffffffff8111801561153d57600080fd5b506040519080825280601f01601f1916602001820160405280156115705781602001600182028036833780820191505090505b5090506000805b60208110156116135760008160080260020a8660001c0260001b9050600060f81b817effffffffffffffffffffffffffffffffffffffffffffffffffffffffffffff19161461160557808484815181106115cd57fe5b60200101907effffffffffffffffffffffffffffffffffffffffffffffffffffffffffffff1916908160001a90535082806001019350505b508080600101915050611577565b5060608167ffffffffffffffff8111801561162d57600080fd5b506040519080825280601f01601f1916602001820160405280156116605781602001600182028036833780820191505090505b50905060005b828110156116cd5783818151811061167a57fe5b602001015160f81c60f81b82828151811061169157fe5b60200101907effffffffffffffffffffffffffffffffffffffffffffffffffffffffffffff1916908160001a9053508080600101915050611666565b50809350505050919050565b6000805b60068054905081101561171a57600681815481106116f757fe5b9060005260206000209060040201600101548201915080806001019150506116dd565b5090565b600260009054906101000a900473ffffffffffffffffffffffffffffffffffffffff1673ffffffffffffffffffffffffffffffffffffffff163373ffffffffffffffffffffffffffffffffffffffff161461177857611875565b600260009054906101000a900473ffffffffffffffffffffffffffffffffffffffff1673ffffffffffffffffffffffffffffffffffffffff163373ffffffffffffffffffffffffffffffffffffffff161415806118215750600460008273ffffffffffffffffffffffffffffffffffffffff1673ffffffffffffffffffffffffffffffffffffffff16815260200190815260200160002060010160009054906101000a900460ff165b1561182b57611874565b6001600460008373ffffffffffffffffffffffffffffffffffffffff1673ffffffffffffffffffffffffffffffffffffffff168152602001908152602001600020600001819055505b5b50565b600060035442101561188d5760019050611892565b600090505b90565b60046020528060005260406000206000915090508060000154908060010160009054906101000a900460ff16908060020154905083565b600660006118da9190611d7f565b82600081905550603c8102420160038190555081600181905550505050565b600080600460003373ffffffffffffffffffffffffffffffffffffffff1673ffffffffffffffffffffffffffffffffffffffff16815260200190815260200160002090508060010160009054906101000a900460ff161561195e576001915050611a00565b60018160010160006101000a81548160ff0219169083151502179055506001816000018190555060005b6006805490508110156119f95783600682815481106119a357fe5b90600052602060002090600402016000015414156119ec578160000154600682815481106119cd57fe5b9060005260206000209060040201600101600082825401925050819055505b8080600101915050611988565b5060009150505b919050565b600060068281548110611a1457fe5b9060005260206000209060040201600101549050919050565b600080600090505b600580549050811015611ac4578273ffffffffffffffffffffffffffffffffffffffff1660058281548110611a6657fe5b9060005260206000200160009054906101000a900473ffffffffffffffffffffffffffffffffffffffff1673ffffffffffffffffffffffffffffffffffffffff161415611ab7576001915050611aca565b8080600101915050611a35565b50600090505b919050565b600060208201519050919050565b600060058281548110611aec57fe5b9060005260206000200160009054906101000a900473ffffffffffffffffffffffffffffffffffffffff169050919050565b600060068281548110611b2d57fe5b9060005260206000209060040201600001549050919050565b6000806000905060005b600680549050811015611bb5578160068281548110611b6b57fe5b9060005260206000209060040201600101541115611ba85760068181548110611b9057fe5b90600052602060002090600402016001015491508092505b8080600101915050611b50565b505090565b6000600580549050905090565b6060611bf76006611bd6611b46565b81548110611be057fe5b906000526020600020906004020160000154611522565b905090565b603c8102420160038190555050565b6000611c1682611a2d565b905080611ced576005829080600181540180825580915050600190039060005260206000200160009091909190916101000a81548173ffffffffffffffffffffffffffffffffffffffff021916908373ffffffffffffffffffffffffffffffffffffffff1602179055506000600460008473ffffffffffffffffffffffffffffffffffffffff1673ffffffffffffffffffffffffffffffffffffffff16815260200190815260200160002090508060010160009054906101000a900460ff1615611ce1575050611cef565b60018160000181905550505b505b50565b6000600680549050905090565b828054600181600116156101000203166002900490600052602060002090601f016020900481019282601f10611d4057805160ff1916838001178555611d6e565b82800160010185558215611d6e579182015b82811115611d6d578251825591602001919060010190611d52565b5b509050611d7b9190611da3565b5090565b5080546000825560040290600052602060002090810190611da09190611dc0565b50565b5b80821115611dbc576000816000905550600101611da4565b5090565b5b80821115611dfb5760008082016000905560018201600090556002820160009055600382016000611df29190611dff565b50600401611dc1565b5090565b50805460018160011615610100020316600290046000825580601f10611e255750611e44565b601f016020900490600052602060002090810190611e439190611da3565b5b5056fea26469706673582212207fc160818475c4008302c6fc0f019b16b9a9be449ddf970165a2810e6e74504464736f6c63430007000033",
  "immutableReferences": {},
  "source": "// SPDX-License-Identifier: MIT\r\npragma solidity >=0.4.21 <=0.7.0;\r\n\r\n\r\ncontract Ballot {\r\n\r\n\t//Information about a voter\r\n\tstruct Voter {\r\n\t\tuint weight; //weight is amount of vote the voter can have\r\n\t\tbool voted; //true implies voter already voted\r\n\t\tuint vote; //index of the voted candidate\r\n\t}\r\n\r\n\t//Candidate type for a single candidate\r\n\r\n\tstruct Candidate {\r\n\t\tbytes32 name; // name up to 32 bytes\r\n\t\tuint voteCount; // total number of votes\r\n\t\tbytes32 partyName;\r\n\t\tstring partySymbol;\r\n\t}\r\n\r\n\tbytes32 electionName;\r\n\tbytes32 electionDesc;\r\n\taddress payable admin;\r\n\tuint votingdeadline;\r\n\r\n\t/*\r\n\t *This is a special type of func called modifier which is used to restrict the execution of certain transaction, where the admin only have the rights to do so\r\n\t *\r\n\t */\r\n\tmodifier onlyAdmin() {\r\n\t\tif (msg.sender != admin)\r\n\t\t\treturn;\r\n\t\t_;\r\n\t}\r\n\r\n\t/*\r\n\t *only admin can change the ownership of the contract\r\n\t * @param {address} newAdmin\r\n\t * address of the admin \r\n\t *\r\n\t */\r\n\t\r\n\r\n\t/*\r\n\t * This function is used set the voting time limit , the duration set by the admin will be added to the current time \r\n\t * @param {uint} duration\r\n\t * duration of the voting period\r\n\t *\r\n\t */\r\n\tfunction setVotingDeadline(uint duration) public {\r\n\t\tvotingdeadline = block.timestamp + (duration * 1 minutes);\r\n\t}\r\n\r\n\t/*\r\n\t *This getter function is used to get the voting deadline, where we have set using the setVotingDeadline() \r\n\t *\r\n\t */\r\n\tfunction getVotingDeadline() public view returns(uint) {\r\n\t\treturn votingdeadline;\r\n\t}\r\n\r\n\t/*\r\n\t *This function is used to make sure that users are not allowed to vote after the voting period ends which will return false\r\n\t *\r\n\t */\r\n\tfunction checkVotingStatus() public view returns(bool) {\r\n\t\tif (block.timestamp > votingdeadline) {\r\n\t\t\treturn false;\r\n\t\t}\r\n\t\treturn true;\r\n\t}\r\n\t/*\r\n\t *This function is used to make sure that users are not allowed to vote after the voting period ends which will return false\r\n\t *\r\n\t */\r\n\t//This function is used make sure that the users are not not allowed to  result unless the voting ends\r\n\tfunction isAllowed() public view returns(bool) {\r\n\t\tif (block.timestamp < votingdeadline) {\r\n\t\t\treturn true;\r\n\t\t}\r\n\t\treturn false;\r\n\t}\r\n\r\n\t//Mapping is used to store the voters detail on the basis of their address\r\n\tmapping(address => Voter) public voters;\r\n\taddress[] voterIndex;\r\n\r\n\t//Dynamnically-sized array of 'Candidate' structs\r\n\tCandidate[] public candidates;\r\n\r\n\t/*\r\n\t *This function creates a new election which requires two arguements electionname and voting duration\r\n\t * @param {bytes32} election\r\n\t * name of the election\r\n\t *@param {uint} duration\r\n\t *\r\n\t */\r\n\tfunction createElection(bytes32 election, bytes32 desc, uint duration) public  {\r\n\t\tdelete candidates;\r\n\t\telectionName = election;\r\n\t\tvotingdeadline = block.timestamp + (duration * 1 minutes);\r\n\t\telectionDesc = desc;\r\n\t}\r\n\r\n\t/*\r\n\t *This function is used to retrieve the election  from the blockchain which returs a string . a helper func called bytes32ToString is used here to convert bytes32 to string \r\n\t *@return {string} elecName\r\n\t * name of an election\r\n\t */\r\n\tfunction getElectionName() public view  returns(string memory elecName) {\r\n\t\telecName = bytes32ToString(electionName);\r\n\t}\r\n\t\r\n\tfunction getElectionDesc() public view returns(string memory elecDesc) {\r\n\t\telecDesc = bytes32ToString(electionDesc);\r\n\t}\r\n\r\n\t/*\r\n\t *This is a helper function which is used to convert the given bytes32 to string which is later required when we want to retrieve the output as a string \r\n\t *@param {bytes32} x\r\n\t * any bytes32 character\r\n\t *@return {string}\r\n\t */\r\n\tfunction bytes32ToString(bytes32 x) public pure returns(string memory) {\r\n\t\tbytes memory bytesString = new bytes(32);\r\n\t\tuint charCount = 0;\r\n\t\tfor (uint j = 0; j < 32; j++) {\r\n\t\t\tbyte char = byte(bytes32(uint(x) * 2 ** (8 * j)));\r\n\t\t\tif (char != 0) {\r\n\t\t\t\tbytesString[charCount] = char;\r\n\t\t\t\tcharCount++;\r\n\t\t\t}\r\n\t\t}\r\n\t\tbytes memory bytesStringTrimmed = new bytes(charCount);\r\n\t\tfor (uint j = 0; j < charCount; j++) {\r\n\t\t\tbytesStringTrimmed[j] = bytesString[j];\r\n\t\t}\r\n\t\treturn string(bytesStringTrimmed);\r\n\t}\r\n\t/*\r\n\t *This function is used to add candidates to the blockchin, which requires three arguements such as candidatename, partyname and party symbol image\r\n\t *@param {bytes32} candid\r\n\t *name of the candidate\r\n\t *@param {bytes32} symbol\r\n\t *symbol of an image\r\n\t *@param {bytes32} party\r\n\t *party name\r\n\t *@return {bytes32} c\r\n\t *a new Candidate object\r\n\t */\r\n\tfunction addCandidate(bytes32 candidateName, bytes32 partyName, string memory symbol) public  {\r\n\t\tcandidates.push(Candidate({\r\n\t\t\tname: candidateName,\r\n\t\t\tpartyName: partyName,\r\n\t\t\tpartySymbol: symbol,\r\n\t\t\tvoteCount: 0\r\n\t\t}));\r\n\t}\r\n\r\n\t/*\r\n\t *This function is used to add candidatename to the blockchain\r\n\t *@return {bytes32} Name\r\n\t * name of a candidate\r\n\t */\r\n\tfunction addCandidateName(string memory candidateName) public pure returns(bytes32 Name) {\r\n\t\tName = stringToBytes32(candidateName);\r\n\t\treturn Name;\r\n\t}\r\n\t/*\r\n\t *This function returns a number of candidates added to the blockchain\r\n\t *@return {uint256} length\r\n\t *the number of candidates added to the blockchain\r\n\t */\r\n\tfunction getCandidateLength() public view  returns(uint256 length) {\r\n\t\tlength = candidates.length;\r\n\t}\r\n\r\n\t/*\r\n\t *This function retrieves the name of the candidate , provided the index of a candidate and is converted to string\r\n\t *@param {uint} index\r\n\t *index of the candidate\r\n\t *@return {string} candid\r\n\t * name of the candidate\r\n\t */\r\n\tfunction getCandidate(uint index) public view  returns(string memory candid) {\r\n\t\tcandid = bytes32ToString(candidates[index].name);\r\n\r\n\t}\r\n\t/*\r\n\t *This function is retrieves the candidate party name from the blockchain and is converted to string\r\n\t *@param {uint} index\r\n\t *index of the candidate\r\n\t *@return {string} party\r\n\t *party name\r\n\t */\r\n\tfunction getCandidatePartyName(uint index) public view  returns(string memory party) {\r\n\t\tparty = bytes32ToString(candidates[index].partyName);\r\n\r\n\t}\r\n\r\n\t/*\r\n\t *This function is retrieves the candidate party symbol from the blockchain and is converted to string\r\n\t *@param {uint} index\r\n\t *index of the candidate\r\n\t *@return {string} symb\r\n\t *party symbol image\r\n\t */\r\n\tfunction getCandidatePartySymbol(uint index) public view  returns(string memory symb) {\r\n\t\tsymb = candidates[index].partySymbol;\r\n\r\n\t}\r\n\r\n\t/*\r\n\t *This function is used to retrieve the candidate details\r\n\t *@param {uint} index\r\n\t *index of the candidate\r\n\t *@return {string} candid\r\n\t *candidate name\r\n\t *@return {string} symb\r\n\t *symbol image\r\n\t */\r\n\tfunction getCandidateDetails(uint index) public view returns(string memory candidate, string memory partyName,  string memory  symb) {\r\n\t\tcandidate = bytes32ToString(candidates[index].name);\r\n\t\tpartyName = bytes32ToString(candidates[index].partyName);\r\n\t\tsymb = candidates[index].partySymbol;\r\n\r\n\t}\r\n\r\n\t/*\r\n\t *This function is used to retrieve the candidate name as a bytes32\r\n\t *@param {uint} index\r\n\t *index of the candidate\r\n\t *@return {bytes32} candid\r\n\t *candidate by bytes\r\n\t */\r\n\tfunction getCandidateBytes(uint index) public view  returns(bytes32 candid) {\r\n\t\tcandid = candidates[index].name;\r\n\t}\r\n\r\n\t/*\r\n\t *This is a helper function which converts string to bytes32\r\n\t *@param {string memory} source\r\n\t *string data type \r\n\t *@return {bytes32} result\r\n\t *result in bytes32\r\n\t */\r\n\tfunction stringToBytes32(string memory source) public pure returns(bytes32 result) {\r\n\t\tassembly {\r\n\t\t\tresult := mload(add(source, 32))\r\n\t\t}\r\n\t}\r\n\r\n\t/*\r\n\t *Admin only gives 'voter' right to vote on the ballot\r\n\t *@param {address} voter\r\n\t *address of the voter\r\n\t *\r\n\t */\r\n\tfunction giveRightToVote(address voter) public onlyAdmin {\r\n\t\tif (msg.sender != admin || voters[voter].voted) {\r\n\t\t\treturn;\r\n\t\t}\r\n\t\tvoters[voter].weight = 1;\r\n\t}\r\n\r\n\t/*\r\n\t *his function adds voters to the blockchain and Admin only have the rights to add the voters\r\n\t * @param {address} voter\r\n\t * address of the voter \r\n\t *\r\n\t */\r\n\tfunction addVoter(address voter) public  {\r\n\t\tbool exist = voterExist(voter); \r\n\t\tif(!exist) {\r\n\t\t\tvoterIndex.push(voter);\r\n\t\t\tVoter storage v = voters[voter];\r\n\t\t\tif (v.voted) {\r\n\t\t\t\treturn;\r\n\t\t\t}\r\n\t\t\tv.weight = 1;\r\n\t\t}\r\n\t\t\r\n\t}\r\n\r\n\tfunction voterExist(address voter) public view returns(bool) {\r\n\t\tfor(uint i=0; i< voterIndex.length; i++) {\r\n\t\t\tif(voterIndex[i] == voter){\r\n\t\t\t\treturn true;\r\n\t\t\t}\r\n\t\t}\r\n\t\treturn false;\r\n\t}\r\n\r\n\tfunction getVoter(uint index) public view returns (address) {\r\n\t\treturn voterIndex[index];\r\n\t}\r\n\r\n\tfunction getVotersLength() public view returns(uint votersLength) {\r\n\t\tvotersLength = voterIndex.length;\r\n\t}\r\n\r\n\t/*\r\n\t *This function checks if candidate already exist\r\n\t * @param {bytes32} candidate\r\n\t * candidate name in bytes32\r\n\t *@return {bool}\r\n\t *a boolean value\r\n\t */\r\n\tfunction validCandidate(bytes32 candidate) public view returns(bool) {\r\n\t\tfor (uint i = 0; i < candidates.length; i++) {\r\n\t\t\tif (candidates[i].name == candidate) {\r\n\t\t\t\treturn true;\r\n\t\t\t}\r\n\t\t}\r\n\t\treturn false;\r\n\t}\r\n\r\n\t/*\r\n\t *This function is used to commit vote to their preferred candidate \r\n\t * @param {bytes32} candidateName\r\n\t * candidate name\r\n\t *@return {bool} check\r\n\t *boolean value\r\n\t */\r\n\tfunction vote(bytes32 candidateName) public  returns(bool check) {\r\n\t\tVoter storage sender = voters[msg.sender];\r\n\t\tif (sender.voted) {\r\n\t\t\treturn true;\r\n\t\t}\r\n\t\telse {\r\n\t\t\tsender.voted = true;\r\n\t\t\tsender.weight = 1;\r\n\r\n\t\t\tfor (uint i = 0; i < candidates.length; i++) {\r\n\t\t\t\tif (candidates[i].name == candidateName) {\r\n\t\t\t\t\tcandidates[i].voteCount += sender.weight;\r\n\t\t\t\t}\r\n\t\t\t}\r\n\t\t\treturn false;\r\n\t\t}\r\n\t}\r\n\r\n\t/*\r\n\t *This function checks if two strings are equal. Note, Solidity handles bytes32 and string as a different data type \r\n\t * @param {string} _a\r\n\t * first string\r\n\t * @param {string} _b\r\n\t * second string\r\n\t *@return {bool}\r\n\t *boolean value\r\n\t */\r\n\tfunction stringsEqual(string  storage _a, string memory _b) internal view returns(bool) {\r\n\t\tbytes storage a = bytes(_a);\r\n\t\tbytes memory b = bytes(_b);\r\n\t\tif (a.length != b.length)\r\n\t\t\treturn false;\r\n\r\n\t\tfor (uint i = 0; i < a.length; i++) {\r\n\t\t\tif (a[i] != b[i])\r\n\t\t\t\treturn false;\r\n\t\t}\r\n\t\treturn true;\r\n\t}\r\n\r\n\t/*\r\n\t *This function gets the number of vote count of each candidate on the basis of their index\r\n\t *@param {uint} index\r\n\t *index of the candidate\r\n\t *@return {uint} voteCount\r\n\t *the number of commited vote of each candidate\r\n\t */\r\n\tfunction getCandidateVoteCount(uint index) public view  returns(uint voteCount) {\r\n\t\treturn candidates[index].voteCount;\r\n\t}\r\n\r\n\t/*\r\n\t/*This function retrieves the total numbers of committed votes to all the candidates\r\n\t*@return {uint} count\r\n\t*toal number of accumulated votes of all the candidates\r\n\t*/\r\n\tfunction getTotalVotes() public view  returns(uint count) {\r\n\t\tcount = 0;\r\n\t\tfor (uint i = 0; i < candidates.length; i++) {\r\n\t\t\tcount += candidates[i].voteCount;\r\n\t\t}\r\n\t}\r\n\r\n\t/*\r\n\t *This function returns true if voters has already voted to make sure that the voters are not allowed to vote twice\r\n\t *@param {address} voter\r\n\t *address of the voter\r\n\t *@return {bool} voted\r\n\t *boolean value\r\n\t */\r\n\tfunction getVoted(address voter) public view returns(bool voted) {\r\n\t\tif (voters[voter].voted == true) {\r\n\t\t\treturn true;\r\n\t\t}\r\n\t\treturn false;\r\n\t}\r\n\r\n\t/*\r\n\t *this function returns the total number of committed votes of each candidate, provided their name \r\n\t * @param {bytes32} candidate\r\n\t * name of the candidate in bytes32\r\n\t *@return {uint}\r\n\t *total number of votes for each candidate\r\n\t */\r\n\r\n\tfunction totalVotesFor(bytes32 candidate) public view  returns(uint) {\r\n\t\tfor (uint i = 0; i < candidates.length; i++) {\r\n\t\t\tif (candidates[i].name == candidate) {\r\n\t\t\t\treturn getCandidateVoteCount(i);\r\n\t\t\t}\r\n\t\t}\r\n\t}\r\n\r\n\t/*\r\n\t *Automatic calculation of winning candidate with all votes of the voters\r\n\t * @return {uint} winningCandidate\r\n\t * the highest number of votes\r\n\t *\r\n\t */\r\n\r\n\tfunction winningCandidate() public view  returns(uint winner) {\r\n\t\tuint winningVoteCount = 0;\r\n\t\tfor (uint i = 0; i < candidates.length; i++) {\r\n\t\t\tif (candidates[i].voteCount > winningVoteCount) {\r\n\t\t\t\twinningVoteCount = candidates[i].voteCount;\r\n\t\t\t\twinner = i;\r\n\t\t\t}\r\n\t\t}\r\n\t}\r\n\t/*\r\n\t *This is a readonly function which returns the name of the winnner candidate\r\n\t *@return {string} winnerName\r\n\t *winner name\r\n\t */\r\n\tfunction winnerName() public view  returns(string memory winner) {\r\n\t\twinner = bytes32ToString(candidates[winningCandidate()].name);\r\n\t}\r\n\r\n\t/*\r\n\t *This function kills the contract and the remaining funds of the contract is recovered back to the admin\r\n\t *\r\n\t */\r\n\tfunction kill() public {\r\n\t\tif (msg.sender == admin) {\r\n\t\t\tselfdestruct(admin);\r\n\t\t}\r\n\t}\r\n\r\n\t/*\r\n\t *  This is a fallback function, which rejects any ether sent to it.It is good Ballotpractise to include such a function for every contract\r\n\t * in order not to loose Ether.  \r\n\t *@return {}\r\n\t */\r\n\r\n\t fallback() external {\r\n\t\treturn;\r\n\t}\r\n}",
  "sourcePath": "C:/Users/yubi/Desktop/kryptovote-react/contracts/Ballot.sol",
  "compiler": {
    "name": "solc",
    "version": "0.7.0+commit.9e61f92b.Emscripten.clang"
  },
  "schemaVersion": "3.2.3",
  "updatedAt": "2020-09-11T11:34:59.588Z",
  "networkType": "ethereum",
  "devdoc": {
    "kind": "dev",
    "methods": {},
    "version": 1
  },
  "userdoc": {
    "kind": "user",
    "methods": {},
    "version": 1
  }
}