{
  "contractName": "Ballot",
  "abi": [
    {
      "stateMutability": "nonpayable",
      "type": "fallback"
    },
    {
      "inputs": [
        {
          "internalType": "uint256",
          "name": "",
          "type": "uint256"
        }
      ],
      "name": "candidates",
      "outputs": [
        {
          "internalType": "bytes32",
          "name": "name",
          "type": "bytes32"
        },
        {
          "internalType": "uint256",
          "name": "voteCount",
          "type": "uint256"
        },
        {
          "internalType": "bytes32",
          "name": "partyName",
          "type": "bytes32"
        },
        {
          "internalType": "string",
          "name": "partySymbol",
          "type": "string"
        }
      ],
      "stateMutability": "view",
      "type": "function",
      "constant": true
    },
    {
      "inputs": [
        {
          "internalType": "address",
          "name": "",
          "type": "address"
        }
      ],
      "name": "voters",
      "outputs": [
        {
          "internalType": "uint256",
          "name": "weight",
          "type": "uint256"
        },
        {
          "internalType": "bool",
          "name": "voted",
          "type": "bool"
        },
        {
          "internalType": "uint256",
          "name": "vote",
          "type": "uint256"
        }
      ],
      "stateMutability": "view",
      "type": "function",
      "constant": true
    },
    {
      "inputs": [
        {
          "internalType": "uint256",
          "name": "duration",
          "type": "uint256"
        }
      ],
      "name": "setVotingDeadline",
      "outputs": [],
      "stateMutability": "nonpayable",
      "type": "function"
    },
    {
      "inputs": [],
      "name": "getVotingDeadline",
      "outputs": [
        {
          "internalType": "uint256",
          "name": "",
          "type": "uint256"
        }
      ],
      "stateMutability": "view",
      "type": "function",
      "constant": true
    },
    {
      "inputs": [],
      "name": "checkVotingStatus",
      "outputs": [
        {
          "internalType": "bool",
          "name": "",
          "type": "bool"
        }
      ],
      "stateMutability": "view",
      "type": "function",
      "constant": true
    },
    {
      "inputs": [],
      "name": "isAllowed",
      "outputs": [
        {
          "internalType": "bool",
          "name": "",
          "type": "bool"
        }
      ],
      "stateMutability": "view",
      "type": "function",
      "constant": true
    },
    {
      "inputs": [
        {
          "internalType": "bytes32",
          "name": "election",
          "type": "bytes32"
        },
        {
          "internalType": "bytes32",
          "name": "desc",
          "type": "bytes32"
        },
        {
          "internalType": "uint256",
          "name": "duration",
          "type": "uint256"
        }
      ],
      "name": "createElection",
      "outputs": [],
      "stateMutability": "nonpayable",
      "type": "function"
    },
    {
      "inputs": [],
      "name": "getElectionName",
      "outputs": [
        {
          "internalType": "string",
          "name": "elecName",
          "type": "string"
        }
      ],
      "stateMutability": "view",
      "type": "function",
      "constant": true
    },
    {
      "inputs": [],
      "name": "getElectionDesc",
      "outputs": [
        {
          "internalType": "string",
          "name": "elecDesc",
          "type": "string"
        }
      ],
      "stateMutability": "view",
      "type": "function",
      "constant": true
    },
    {
      "inputs": [
        {
          "internalType": "bytes32",
          "name": "x",
          "type": "bytes32"
        }
      ],
      "name": "bytes32ToString",
      "outputs": [
        {
          "internalType": "string",
          "name": "",
          "type": "string"
        }
      ],
      "stateMutability": "pure",
      "type": "function",
      "constant": true
    },
    {
      "inputs": [
        {
          "internalType": "bytes32",
          "name": "candidateName",
          "type": "bytes32"
        },
        {
          "internalType": "bytes32",
          "name": "partyName",
          "type": "bytes32"
        },
        {
          "internalType": "string",
          "name": "symbol",
          "type": "string"
        }
      ],
      "name": "addCandidate",
      "outputs": [],
      "stateMutability": "nonpayable",
      "type": "function"
    },
    {
      "inputs": [
        {
          "internalType": "string",
          "name": "candidateName",
          "type": "string"
        }
      ],
      "name": "addCandidateName",
      "outputs": [
        {
          "internalType": "bytes32",
          "name": "Name",
          "type": "bytes32"
        }
      ],
      "stateMutability": "pure",
      "type": "function",
      "constant": true
    },
    {
      "inputs": [],
      "name": "getCandidateLength",
      "outputs": [
        {
          "internalType": "uint256",
          "name": "length",
          "type": "uint256"
        }
      ],
      "stateMutability": "view",
      "type": "function",
      "constant": true
    },
    {
      "inputs": [
        {
          "internalType": "uint256",
          "name": "index",
          "type": "uint256"
        }
      ],
      "name": "getCandidate",
      "outputs": [
        {
          "internalType": "string",
          "name": "candid",
          "type": "string"
        }
      ],
      "stateMutability": "view",
      "type": "function",
      "constant": true
    },
    {
      "inputs": [
        {
          "internalType": "uint256",
          "name": "index",
          "type": "uint256"
        }
      ],
      "name": "getCandidatePartyName",
      "outputs": [
        {
          "internalType": "string",
          "name": "party",
          "type": "string"
        }
      ],
      "stateMutability": "view",
      "type": "function",
      "constant": true
    },
    {
      "inputs": [
        {
          "internalType": "uint256",
          "name": "index",
          "type": "uint256"
        }
      ],
      "name": "getCandidatePartySymbol",
      "outputs": [
        {
          "internalType": "string",
          "name": "symb",
          "type": "string"
        }
      ],
      "stateMutability": "view",
      "type": "function",
      "constant": true
    },
    {
      "inputs": [
        {
          "internalType": "uint256",
          "name": "index",
          "type": "uint256"
        }
      ],
      "name": "getCandidateDetails",
      "outputs": [
        {
          "internalType": "string",
          "name": "candidate",
          "type": "string"
        },
        {
          "internalType": "string",
          "name": "partyName",
          "type": "string"
        },
        {
          "internalType": "string",
          "name": "symb",
          "type": "string"
        }
      ],
      "stateMutability": "view",
      "type": "function",
      "constant": true
    },
    {
      "inputs": [
        {
          "internalType": "uint256",
          "name": "index",
          "type": "uint256"
        }
      ],
      "name": "getCandidateBytes",
      "outputs": [
        {
          "internalType": "bytes32",
          "name": "candid",
          "type": "bytes32"
        }
      ],
      "stateMutability": "view",
      "type": "function",
      "constant": true
    },
    {
      "inputs": [
        {
          "internalType": "string",
          "name": "source",
          "type": "string"
        }
      ],
      "name": "stringToBytes32",
      "outputs": [
        {
          "internalType": "bytes32",
          "name": "result",
          "type": "bytes32"
        }
      ],
      "stateMutability": "pure",
      "type": "function",
      "constant": true
    },
    {
      "inputs": [
        {
          "internalType": "address",
          "name": "voter",
          "type": "address"
        }
      ],
      "name": "giveRightToVote",
      "outputs": [],
      "stateMutability": "nonpayable",
      "type": "function"
    },
    {
      "inputs": [
        {
          "internalType": "address",
          "name": "voter",
          "type": "address"
        }
      ],
      "name": "addVoter",
      "outputs": [],
      "stateMutability": "nonpayable",
      "type": "function"
    },
    {
      "inputs": [
        {
          "internalType": "bytes32",
          "name": "candidate",
          "type": "bytes32"
        }
      ],
      "name": "validCandidate",
      "outputs": [
        {
          "internalType": "bool",
          "name": "",
          "type": "bool"
        }
      ],
      "stateMutability": "view",
      "type": "function",
      "constant": true
    },
    {
      "inputs": [
        {
          "internalType": "bytes32",
          "name": "candidateName",
          "type": "bytes32"
        }
      ],
      "name": "vote",
      "outputs": [
        {
          "internalType": "bool",
          "name": "check",
          "type": "bool"
        }
      ],
      "stateMutability": "nonpayable",
      "type": "function"
    },
    {
      "inputs": [
        {
          "internalType": "uint256",
          "name": "index",
          "type": "uint256"
        }
      ],
      "name": "getCandidateVoteCount",
      "outputs": [
        {
          "internalType": "uint256",
          "name": "voteCount",
          "type": "uint256"
        }
      ],
      "stateMutability": "view",
      "type": "function",
      "constant": true
    },
    {
      "inputs": [],
      "name": "getTotalVotes",
      "outputs": [
        {
          "internalType": "uint256",
          "name": "count",
          "type": "uint256"
        }
      ],
      "stateMutability": "view",
      "type": "function",
      "constant": true
    },
    {
      "inputs": [
        {
          "internalType": "address",
          "name": "voter",
          "type": "address"
        }
      ],
      "name": "getVoted",
      "outputs": [
        {
          "internalType": "bool",
          "name": "voted",
          "type": "bool"
        }
      ],
      "stateMutability": "view",
      "type": "function",
      "constant": true
    },
    {
      "inputs": [
        {
          "internalType": "bytes32",
          "name": "candidate",
          "type": "bytes32"
        }
      ],
      "name": "totalVotesFor",
      "outputs": [
        {
          "internalType": "uint256",
          "name": "",
          "type": "uint256"
        }
      ],
      "stateMutability": "view",
      "type": "function",
      "constant": true
    },
    {
      "inputs": [],
      "name": "winningCandidate",
      "outputs": [
        {
          "internalType": "uint256",
          "name": "winner",
          "type": "uint256"
        }
      ],
      "stateMutability": "view",
      "type": "function",
      "constant": true
    },
    {
      "inputs": [],
      "name": "winnerName",
      "outputs": [
        {
          "internalType": "string",
          "name": "winner",
          "type": "string"
        }
      ],
      "stateMutability": "view",
      "type": "function",
      "constant": true
    },
    {
      "inputs": [],
      "name": "kill",
      "outputs": [],
      "stateMutability": "nonpayable",
      "type": "function"
    }
  ],
  "bytecode": "0x608060405234801561001057600080fd5b50611bd5806100206000396000f3fe608060405234801561001057600080fd5b50600436106101de5760003560e01c80639201de5511610104578063b315c597116100a2578063e2ba53f011610071578063e2ba53f014610d65578063edfbf7b614610de8578063f4ab9adf14610e16578063f7522a8314610e5a576101df565b8063b315c59714610bf4578063cfb5192814610c36578063d164294e14610d05578063d28178d714610d47576101df565b8063a21fbc92116100de578063a21fbc9214610ae6578063a3ec138d14610b06578063a40858a114610b6e578063a69beaba14610bb0576101df565b80639201de55146109dd5780639a0e7d6614610a845780639e7b8d6114610aa2576101df565b80633477ee2e1161017c57806341c0e1b51161014b57806341c0e1b51461084f5780635aa82fbe14610859578063666ae430146108b35780638ec77d5d14610936576101df565b80633477ee2e146105d957806335b8e82014610695578063392e66781461073c5780633e15cd3314610780576101df565b80632471de16116101b85780632471de16146102ee57806327f9fd50146103955780632f265cf71461051457806330e7a79c14610556576101df565b806312c56989146101e15780631e1b7990146102015780631f7b8622146102d0576101df565b5b005b6101e9610e78565b60405180821515815260200191505060405180910390f35b6102ba6004803603602081101561021757600080fd5b810190808035906020019064010000000081111561023457600080fd5b82018360208201111561024657600080fd5b8035906020019184600183028401116401000000008311171561026857600080fd5b91908080601f016020809104026020016040519081016040528093929190818152602001838380828437600081840152601f19601f820116905080830192505050505050509192919290505050610e95565b6040518082815260200191505060405180910390f35b6102d8610ea7565b6040518082815260200191505060405180910390f35b61031a6004803603602081101561030457600080fd5b8101908080359060200190929190505050610eb1565b6040518080602001828103825283818151815260200191508051906020019080838360005b8381101561035a57808201518184015260208101905061033f565b50505050905090810190601f1680156103875780820380516001836020036101000a031916815260200191505b509250505060405180910390f35b6103c1600480360360208110156103ab57600080fd5b8101908080359060200190929190505050610ee1565b60405180806020018060200180602001848103845287818151815260200191508051906020019080838360005b838110156104095780820151818401526020810190506103ee565b50505050905090810190601f1680156104365780820380516001836020036101000a031916815260200191505b50848103835286818151815260200191508051906020019080838360005b8381101561046f578082015181840152602081019050610454565b50505050905090810190601f16801561049c5780820380516001836020036101000a031916815260200191505b50848103825285818151815260200191508051906020019080838360005b838110156104d55780820151818401526020810190506104ba565b50505050905090810190601f1680156105025780820380516001836020036101000a031916815260200191505b50965050505050505060405180910390f35b6105406004803603602081101561052a57600080fd5b8101908080359060200190929190505050610ff8565b6040518082815260200191505060405180910390f35b61055e611058565b6040518080602001828103825283818151815260200191508051906020019080838360005b8381101561059e578082015181840152602081019050610583565b50505050905090810190601f1680156105cb5780820380516001836020036101000a031916815260200191505b509250505060405180910390f35b610605600480360360208110156105ef57600080fd5b810190808035906020019092919050505061106a565b6040518085815260200184815260200183815260200180602001828103825283818151815260200191508051906020019080838360005b8381101561065757808201518184015260208101905061063c565b50505050905090810190601f1680156106845780820380516001836020036101000a031916815260200191505b509550505050505060405180910390f35b6106c1600480360360208110156106ab57600080fd5b810190808035906020019092919050505061113f565b6040518080602001828103825283818151815260200191508051906020019080838360005b838110156107015780820151818401526020810190506106e6565b50505050905090810190601f16801561072e5780820380516001836020036101000a031916815260200191505b509250505060405180910390f35b6107686004803603602081101561075257600080fd5b810190808035906020019092919050505061116f565b60405180821515815260200191505060405180910390f35b61084d6004803603606081101561079657600080fd5b810190808035906020019092919080359060200190929190803590602001906401000000008111156107c757600080fd5b8201836020820111156107d957600080fd5b803590602001918460018302840111640100000000831117156107fb57600080fd5b91908080601f016020809104026020016040519081016040528093929190818152602001838380828437600081840152601f19601f8201169050808301925050505050505091929192905050506111cc565b005b61085761125b565b005b61089b6004803603602081101561086f57600080fd5b81019080803573ffffffffffffffffffffffffffffffffffffffff1690602001909291905050506112ee565b60405180821515815260200191505060405180910390f35b6108bb61135f565b6040518080602001828103825283818151815260200191508051906020019080838360005b838110156108fb5780820151818401526020810190506108e0565b50505050905090810190601f1680156109285780820380516001836020036101000a031916815260200191505b509250505060405180910390f35b6109626004803603602081101561094c57600080fd5b8101908080359060200190929190505050611371565b6040518080602001828103825283818151815260200191508051906020019080838360005b838110156109a2578082015181840152602081019050610987565b50505050905090810190601f1680156109cf5780820380516001836020036101000a031916815260200191505b509250505060405180910390f35b610a09600480360360208110156109f357600080fd5b8101908080359060200190929190505050611431565b6040518080602001828103825283818151815260200191508051906020019080838360005b83811015610a49578082015181840152602081019050610a2e565b50505050905090810190601f168015610a765780820380516001836020036101000a031916815260200191505b509250505060405180910390f35b610a8c6115e8565b6040518082815260200191505060405180910390f35b610ae460048036036020811015610ab857600080fd5b81019080803573ffffffffffffffffffffffffffffffffffffffff16906020019092919050505061162d565b005b610aee611787565b60405180821515815260200191505060405180910390f35b610b4860048036036020811015610b1c57600080fd5b81019080803573ffffffffffffffffffffffffffffffffffffffff1690602001909291905050506117a4565b604051808481526020018315158152602001828152602001935050505060405180910390f35b610bae60048036036060811015610b8457600080fd5b810190808035906020019092919080359060200190929190803590602001909291905050506117db565b005b610bdc60048036036020811015610bc657600080fd5b8101908080359060200190929190505050611809565b60405180821515815260200191505060405180910390f35b610c2060048036036020811015610c0a57600080fd5b8101908080359060200190929190505050611915565b6040518082815260200191505060405180910390f35b610cef60048036036020811015610c4c57600080fd5b8101908080359060200190640100000000811115610c6957600080fd5b820183602082011115610c7b57600080fd5b80359060200191846001830284011164010000000083111715610c9d57600080fd5b91908080601f016020809104026020016040519081016040528093929190818152602001838380828437600081840152601f19601f82011690508083019250505050505050919291929050505061193d565b6040518082815260200191505060405180910390f35b610d3160048036036020811015610d1b57600080fd5b810190808035906020019092919050505061194b565b6040518082815260200191505060405180910390f35b610d4f611973565b6040518082815260200191505060405180910390f35b610d6d6119e7565b6040518080602001828103825283818151815260200191508051906020019080838360005b83811015610dad578082015181840152602081019050610d92565b50505050905090810190601f168015610dda5780820380516001836020036101000a031916815260200191505b509250505060405180910390f35b610e1460048036036020811015610dfe57600080fd5b8101908080359060200190929190505050611a1c565b005b610e5860048036036020811015610e2c57600080fd5b81019080803573ffffffffffffffffffffffffffffffffffffffff169060200190929190505050611a2b565b005b610e62611af5565b6040518082815260200191505060405180910390f35b6000600354421115610e8d5760009050610e92565b600190505b90565b6000610ea08261193d565b9050919050565b6000600354905090565b6060610eda60058381548110610ec357fe5b906000526020600020906004020160020154611431565b9050919050565b6060806060610f0d60058581548110610ef657fe5b906000526020600020906004020160000154611431565b9250610f3660058581548110610f1f57fe5b906000526020600020906004020160020154611431565b915060058481548110610f4557fe5b90600052602060002090600402016003018054600181600116156101000203166002900480601f016020809104026020016040519081016040528092919081815260200182805460018160011615610100020316600290048015610fea5780601f10610fbf57610100808354040283529160200191610fea565b820191906000526020600020905b815481529060010190602001808311610fcd57829003601f168201915b505050505090509193909250565b600080600090505b60058054905081101561105157826005828154811061101b57fe5b90600052602060002090600402016000015414156110445761103c81611915565b915050611053565b8080600101915050611000565b505b919050565b6060611065600054611431565b905090565b6005818154811061107757fe5b9060005260206000209060040201600091509050806000015490806001015490806002015490806003018054600181600116156101000203166002900480601f0160208091040260200160405190810160405280929190818152602001828054600181600116156101000203166002900480156111355780601f1061110a57610100808354040283529160200191611135565b820191906000526020600020905b81548152906001019060200180831161111857829003601f168201915b5050505050905084565b60606111686005838154811061115157fe5b906000526020600020906004020160000154611431565b9050919050565b600080600090505b6005805490508110156111c157826005828154811061119257fe5b90600052602060002090600402016000015414156111b45760019150506111c7565b8080600101915050611177565b50600090505b919050565b60056040518060800160405280858152602001600081526020018481526020018381525090806001815401808255809150506001900390600052602060002090600402016000909190919091506000820151816000015560208201518160010155604082015181600201556060820151816003019080519060200190611253929190611b02565b505050505050565b600260009054906101000a900473ffffffffffffffffffffffffffffffffffffffff1673ffffffffffffffffffffffffffffffffffffffff163373ffffffffffffffffffffffffffffffffffffffff1614156112ec57600260009054906101000a900473ffffffffffffffffffffffffffffffffffffffff1673ffffffffffffffffffffffffffffffffffffffff16ff5b565b600060011515600460008473ffffffffffffffffffffffffffffffffffffffff1673ffffffffffffffffffffffffffffffffffffffff16815260200190815260200160002060010160009054906101000a900460ff1615151415611355576001905061135a565b600090505b919050565b606061136c600154611431565b905090565b60606005828154811061138057fe5b90600052602060002090600402016003018054600181600116156101000203166002900480601f0160208091040260200160405190810160405280929190818152602001828054600181600116156101000203166002900480156114255780601f106113fa57610100808354040283529160200191611425565b820191906000526020600020905b81548152906001019060200180831161140857829003601f168201915b50505050509050919050565b606080602067ffffffffffffffff8111801561144c57600080fd5b506040519080825280601f01601f19166020018201604052801561147f5781602001600182028036833780820191505090505b5090506000805b60208110156115225760008160080260020a8660001c0260001b9050600060f81b817effffffffffffffffffffffffffffffffffffffffffffffffffffffffffffff19161461151457808484815181106114dc57fe5b60200101907effffffffffffffffffffffffffffffffffffffffffffffffffffffffffffff1916908160001a90535082806001019350505b508080600101915050611486565b5060608167ffffffffffffffff8111801561153c57600080fd5b506040519080825280601f01601f19166020018201604052801561156f5781602001600182028036833780820191505090505b50905060005b828110156115dc5783818151811061158957fe5b602001015160f81c60f81b8282815181106115a057fe5b60200101907effffffffffffffffffffffffffffffffffffffffffffffffffffffffffffff1916908160001a9053508080600101915050611575565b50809350505050919050565b6000805b600580549050811015611629576005818154811061160657fe5b9060005260206000209060040201600101548201915080806001019150506115ec565b5090565b600260009054906101000a900473ffffffffffffffffffffffffffffffffffffffff1673ffffffffffffffffffffffffffffffffffffffff163373ffffffffffffffffffffffffffffffffffffffff161461168757611784565b600260009054906101000a900473ffffffffffffffffffffffffffffffffffffffff1673ffffffffffffffffffffffffffffffffffffffff163373ffffffffffffffffffffffffffffffffffffffff161415806117305750600460008273ffffffffffffffffffffffffffffffffffffffff1673ffffffffffffffffffffffffffffffffffffffff16815260200190815260200160002060010160009054906101000a900460ff165b1561173a57611783565b6001600460008373ffffffffffffffffffffffffffffffffffffffff1673ffffffffffffffffffffffffffffffffffffffff168152602001908152602001600020600001819055505b5b50565b600060035442101561179c57600190506117a1565b600090505b90565b60046020528060005260406000206000915090508060000154908060010160009054906101000a900460ff16908060020154905083565b6003544214156117ea57600080fd5b82600081905550603c8102420160038190555081600181905550505050565b600080600460003373ffffffffffffffffffffffffffffffffffffffff1673ffffffffffffffffffffffffffffffffffffffff16815260200190815260200160002090508060010160009054906101000a900460ff161561186e576001915050611910565b60018160010160006101000a81548160ff0219169083151502179055506001816000018190555060005b6005805490508110156119095783600582815481106118b357fe5b90600052602060002090600402016000015414156118fc578160000154600582815481106118dd57fe5b9060005260206000209060040201600101600082825401925050819055505b8080600101915050611898565b5060009150505b919050565b60006005828154811061192457fe5b9060005260206000209060040201600101549050919050565b600060208201519050919050565b60006005828154811061195a57fe5b9060005260206000209060040201600001549050919050565b6000806000905060005b6005805490508110156119e257816005828154811061199857fe5b90600052602060002090600402016001015411156119d557600581815481106119bd57fe5b90600052602060002090600402016001015491508092505b808060010191505061197d565b505090565b6060611a1760056119f6611973565b81548110611a0057fe5b906000526020600020906004020160000154611431565b905090565b603c8102420160038190555050565b600260009054906101000a900473ffffffffffffffffffffffffffffffffffffffff1673ffffffffffffffffffffffffffffffffffffffff163373ffffffffffffffffffffffffffffffffffffffff1614611a8557611af2565b6000600460008373ffffffffffffffffffffffffffffffffffffffff1673ffffffffffffffffffffffffffffffffffffffff16815260200190815260200160002090508060010160009054906101000a900460ff1615611ae55750611af1565b60018160000181905550505b5b50565b6000600580549050905090565b828054600181600116156101000203166002900490600052602060002090601f016020900481019282601f10611b4357805160ff1916838001178555611b71565b82800160010185558215611b71579182015b82811115611b70578251825591602001919060010190611b55565b5b509050611b7e9190611b82565b5090565b5b80821115611b9b576000816000905550600101611b83565b509056fea26469706673582212204a62045c29f1d75b7b4bd88a7f28f602981cc5563c319b5293f820c510e8ecc064736f6c63430007000033",
  "immutableReferences": {},
  "source": "// SPDX-License-Identifier: MIT\r\npragma solidity >=0.4.21 <=0.7.0;\r\n\r\n\r\ncontract Ballot {\r\n\r\n\t//Information about a voter\r\n\tstruct Voter {\r\n\t\tuint weight; //weight is amount of vote the voter can have\r\n\t\tbool voted; //true implies voter already voted\r\n\t\tuint vote; //index of the voted candidate\r\n\t}\r\n\r\n\t//Candidate type for a single candidate\r\n\r\n\tstruct Candidate {\r\n\t\tbytes32 name; // name up to 32 bytes\r\n\t\tuint voteCount; // total number of votes\r\n\t\tbytes32 partyName;\r\n\t\tstring partySymbol;\r\n\t}\r\n\r\n\tbytes32 electionName;\r\n\tbytes32 electionDesc;\r\n\taddress payable admin;\r\n\tuint votingdeadline;\r\n\r\n\t/*\r\n\t *This is a special type of func called modifier which is used to restrict the execution of certain transaction, where the admin only have the rights to do so\r\n\t *\r\n\t */\r\n\tmodifier onlyAdmin() {\r\n\t\tif (msg.sender != admin)\r\n\t\t\treturn;\r\n\t\t_;\r\n\t}\r\n\r\n\t/*\r\n\t *only admin can change the ownership of the contract\r\n\t * @param {address} newAdmin\r\n\t * address of the admin \r\n\t *\r\n\t */\r\n\t\r\n\r\n\t/*\r\n\t * This function is used set the voting time limit , the duration set by the admin will be added to the current time \r\n\t * @param {uint} duration\r\n\t * duration of the voting period\r\n\t *\r\n\t */\r\n\tfunction setVotingDeadline(uint duration) public {\r\n\t\tvotingdeadline = block.timestamp + (duration * 1 minutes);\r\n\t}\r\n\r\n\t/*\r\n\t *This getter function is used to get the voting deadline, where we have set using the setVotingDeadline() \r\n\t *\r\n\t */\r\n\tfunction getVotingDeadline() public view returns(uint) {\r\n\t\treturn votingdeadline;\r\n\t}\r\n\r\n\t/*\r\n\t *This function is used to make sure that users are not allowed to vote after the voting period ends which will return false\r\n\t *\r\n\t */\r\n\tfunction checkVotingStatus() public view returns(bool) {\r\n\t\tif (block.timestamp > votingdeadline) {\r\n\t\t\treturn false;\r\n\t\t}\r\n\t\telse {\r\n\t\t\treturn true;\r\n\t\t}\r\n\t}\r\n\t/*\r\n\t *This function is used to make sure that users are not allowed to vote after the voting period ends which will return false\r\n\t *\r\n\t */\r\n\t//This function is used make sure that the users are not not allowed to  result unless the voting ends\r\n\tfunction isAllowed() public view returns(bool) {\r\n\t\tif (block.timestamp < votingdeadline) {\r\n\t\t\treturn true;\r\n\t\t}\r\n\t\telse {\r\n\t\t\treturn false;\r\n\t\t}\r\n\t}\r\n\r\n\t//Mapping is used to store the voters detail on the basis of their address\r\n\tmapping(address => Voter) public voters;\r\n\r\n\t//Dynamnically-sized array of 'Candidate' structs\r\n\tCandidate[] public candidates;\r\n\r\n\t/*\r\n\t *This function creates a new election which requires two arguements electionname and voting duration\r\n\t * @param {bytes32} election\r\n\t * name of the election\r\n\t *@param {uint} duration\r\n\t *\r\n\t */\r\n\tfunction createElection(bytes32 election, bytes32 desc, uint duration) public  {\r\n\t\trequire( block.timestamp != votingdeadline );\r\n\t\telectionName = election;\r\n\t\tvotingdeadline = block.timestamp + (duration * 1 minutes);\r\n\t\telectionDesc = desc;\r\n\t}\r\n\r\n\t/*\r\n\t *This function is used to retrieve the election  from the blockchain which returs a string . a helper func called bytes32ToString is used here to convert bytes32 to string \r\n\t *@return {string} elecName\r\n\t * name of an election\r\n\t */\r\n\tfunction getElectionName() public view  returns(string memory elecName) {\r\n\t\telecName = bytes32ToString(electionName);\r\n\t}\r\n\t\r\n\tfunction getElectionDesc() public view returns(string memory elecDesc) {\r\n\t\telecDesc = bytes32ToString(electionDesc);\r\n\t}\r\n\r\n\t/*\r\n\t *This is a helper function which is used to convert the given bytes32 to string which is later required when we want to retrieve the output as a string \r\n\t *@param {bytes32} x\r\n\t * any bytes32 character\r\n\t *@return {string}\r\n\t */\r\n\tfunction bytes32ToString(bytes32 x) public pure returns(string memory) {\r\n\t\tbytes memory bytesString = new bytes(32);\r\n\t\tuint charCount = 0;\r\n\t\tfor (uint j = 0; j < 32; j++) {\r\n\t\t\tbyte char = byte(bytes32(uint(x) * 2 ** (8 * j)));\r\n\t\t\tif (char != 0) {\r\n\t\t\t\tbytesString[charCount] = char;\r\n\t\t\t\tcharCount++;\r\n\t\t\t}\r\n\t\t}\r\n\t\tbytes memory bytesStringTrimmed = new bytes(charCount);\r\n\t\tfor (uint j = 0; j < charCount; j++) {\r\n\t\t\tbytesStringTrimmed[j] = bytesString[j];\r\n\t\t}\r\n\t\treturn string(bytesStringTrimmed);\r\n\t}\r\n\t/*\r\n\t *This function is used to add candidates to the blockchin, which requires three arguements such as candidatename, partyname and party symbol image\r\n\t *@param {bytes32} candid\r\n\t *name of the candidate\r\n\t *@param {bytes32} symbol\r\n\t *symbol of an image\r\n\t *@param {bytes32} party\r\n\t *party name\r\n\t *@return {bytes32} c\r\n\t *a new Candidate object\r\n\t */\r\n\tfunction addCandidate(bytes32 candidateName, bytes32 partyName, string memory symbol) public  {\r\n\t\tcandidates.push(Candidate({\r\n\t\t\tname: candidateName,\r\n\t\t\tpartyName: partyName,\r\n\t\t\tpartySymbol: symbol,\r\n\t\t\tvoteCount: 0\r\n\t\t}));\r\n\t}\r\n\r\n\t/*\r\n\t *This function is used to add candidatename to the blockchain\r\n\t *@return {bytes32} Name\r\n\t * name of a candidate\r\n\t */\r\n\tfunction addCandidateName(string memory candidateName) public pure returns(bytes32 Name) {\r\n\t\tName = stringToBytes32(candidateName);\r\n\t\treturn Name;\r\n\t}\r\n\t/*\r\n\t *This function returns a number of candidates added to the blockchain\r\n\t *@return {uint256} length\r\n\t *the number of candidates added to the blockchain\r\n\t */\r\n\tfunction getCandidateLength() public view  returns(uint256 length) {\r\n\t\tlength = candidates.length;\r\n\t}\r\n\r\n\t/*\r\n\t *This function retrieves the name of the candidate , provided the index of a candidate and is converted to string\r\n\t *@param {uint} index\r\n\t *index of the candidate\r\n\t *@return {string} candid\r\n\t * name of the candidate\r\n\t */\r\n\tfunction getCandidate(uint index) public view  returns(string memory candid) {\r\n\t\tcandid = bytes32ToString(candidates[index].name);\r\n\r\n\t}\r\n\t/*\r\n\t *This function is retrieves the candidate party name from the blockchain and is converted to string\r\n\t *@param {uint} index\r\n\t *index of the candidate\r\n\t *@return {string} party\r\n\t *party name\r\n\t */\r\n\tfunction getCandidatePartyName(uint index) public view  returns(string memory party) {\r\n\t\tparty = bytes32ToString(candidates[index].partyName);\r\n\r\n\t}\r\n\r\n\t/*\r\n\t *This function is retrieves the candidate party symbol from the blockchain and is converted to string\r\n\t *@param {uint} index\r\n\t *index of the candidate\r\n\t *@return {string} symb\r\n\t *party symbol image\r\n\t */\r\n\tfunction getCandidatePartySymbol(uint index) public view  returns(string memory symb) {\r\n\t\tsymb = candidates[index].partySymbol;\r\n\r\n\t}\r\n\r\n\t/*\r\n\t *This function is used to retrieve the candidate details\r\n\t *@param {uint} index\r\n\t *index of the candidate\r\n\t *@return {string} candid\r\n\t *candidate name\r\n\t *@return {string} symb\r\n\t *symbol image\r\n\t */\r\n\tfunction getCandidateDetails(uint index) public view returns(string memory candidate, string memory partyName,  string memory  symb) {\r\n\t\tcandidate = bytes32ToString(candidates[index].name);\r\n\t\tpartyName = bytes32ToString(candidates[index].partyName);\r\n\t\tsymb = candidates[index].partySymbol;\r\n\r\n\t}\r\n\r\n\t/*\r\n\t *This function is used to retrieve the candidate name as a bytes32\r\n\t *@param {uint} index\r\n\t *index of the candidate\r\n\t *@return {bytes32} candid\r\n\t *candidate by bytes\r\n\t */\r\n\tfunction getCandidateBytes(uint index) public view  returns(bytes32 candid) {\r\n\t\tcandid = candidates[index].name;\r\n\t}\r\n\r\n\t/*\r\n\t *This is a helper function which converts string to bytes32\r\n\t *@param {string memory} source\r\n\t *string data type \r\n\t *@return {bytes32} result\r\n\t *result in bytes32\r\n\t */\r\n\tfunction stringToBytes32(string memory source) public pure returns(bytes32 result) {\r\n\t\tassembly {\r\n\t\t\tresult := mload(add(source, 32))\r\n\t\t}\r\n\t}\r\n\r\n\t/*\r\n\t *Admin only gives 'voter' right to vote on the ballot\r\n\t *@param {address} voter\r\n\t *address of the voter\r\n\t *\r\n\t */\r\n\tfunction giveRightToVote(address voter) public onlyAdmin {\r\n\t\tif (msg.sender != admin || voters[voter].voted) {\r\n\t\t\treturn;\r\n\t\t}\r\n\t\tvoters[voter].weight = 1;\r\n\t}\r\n\r\n\t/*\r\n\t *his function adds voters to the blockchain and Admin only have the rights to add the voters\r\n\t * @param {address} voter\r\n\t * address of the voter \r\n\t *\r\n\t */\r\n\tfunction addVoter(address voter) public onlyAdmin {\r\n\t\tVoter storage v = voters[voter];\r\n\t\tif (v.voted) {\r\n\t\t\treturn;\r\n\t\t}\r\n\t\tv.weight = 1;\r\n\t}\r\n\r\n\t/*\r\n\t *This function checks if candidate already exist\r\n\t * @param {bytes32} candidate\r\n\t * candidate name in bytes32\r\n\t *@return {bool}\r\n\t *a boolean value\r\n\t */\r\n\tfunction validCandidate(bytes32 candidate) public view returns(bool) {\r\n\t\tfor (uint i = 0; i < candidates.length; i++) {\r\n\t\t\tif (candidates[i].name == candidate) {\r\n\t\t\t\treturn true;\r\n\t\t\t}\r\n\t\t}\r\n\t\treturn false;\r\n\t}\r\n\r\n\t/*\r\n\t *This function is used to commit vote to their preferred candidate \r\n\t * @param {bytes32} candidateName\r\n\t * candidate name\r\n\t *@return {bool} check\r\n\t *boolean value\r\n\t */\r\n\tfunction vote(bytes32 candidateName) public  returns(bool check) {\r\n\t\tVoter storage sender = voters[msg.sender];\r\n\t\tif (sender.voted) {\r\n\t\t\treturn true;\r\n\t\t}\r\n\t\telse {\r\n\t\t\tsender.voted = true;\r\n\t\t\tsender.weight = 1;\r\n\r\n\t\t\tfor (uint i = 0; i < candidates.length; i++) {\r\n\t\t\t\tif (candidates[i].name == candidateName) {\r\n\t\t\t\t\tcandidates[i].voteCount += sender.weight;\r\n\t\t\t\t}\r\n\t\t\t}\r\n\t\t\treturn false;\r\n\t\t}\r\n\t}\r\n\r\n\t/*\r\n\t *This function checks if two strings are equal. Note, Solidity handles bytes32 and string as a different data type \r\n\t * @param {string} _a\r\n\t * first string\r\n\t * @param {string} _b\r\n\t * second string\r\n\t *@return {bool}\r\n\t *boolean value\r\n\t */\r\n\tfunction stringsEqual(string  storage _a, string memory _b) internal view returns(bool) {\r\n\t\tbytes storage a = bytes(_a);\r\n\t\tbytes memory b = bytes(_b);\r\n\t\tif (a.length != b.length)\r\n\t\t\treturn false;\r\n\r\n\t\tfor (uint i = 0; i < a.length; i++) {\r\n\t\t\tif (a[i] != b[i])\r\n\t\t\t\treturn false;\r\n\t\t}\r\n\t\treturn true;\r\n\t}\r\n\r\n\t/*\r\n\t *This function gets the number of vote count of each candidate on the basis of their index\r\n\t *@param {uint} index\r\n\t *index of the candidate\r\n\t *@return {uint} voteCount\r\n\t *the number of commited vote of each candidate\r\n\t */\r\n\tfunction getCandidateVoteCount(uint index) public view  returns(uint voteCount) {\r\n\t\treturn candidates[index].voteCount;\r\n\t}\r\n\r\n\t/*\r\n\t/*This function retrieves the total numbers of committed votes to all the candidates\r\n\t*@return {uint} count\r\n\t*toal number of accumulated votes of all the candidates\r\n\t*/\r\n\tfunction getTotalVotes() public view  returns(uint count) {\r\n\t\tcount = 0;\r\n\t\tfor (uint i = 0; i < candidates.length; i++) {\r\n\t\t\tcount += candidates[i].voteCount;\r\n\t\t}\r\n\t}\r\n\r\n\t/*\r\n\t *This function returns true if voters has already voted to make sure that the voters are not allowed to vote twice\r\n\t *@param {address} voter\r\n\t *address of the voter\r\n\t *@return {bool} voted\r\n\t *boolean value\r\n\t */\r\n\tfunction getVoted(address voter) public view returns(bool voted) {\r\n\t\tif (voters[voter].voted == true) {\r\n\t\t\treturn true;\r\n\t\t}\r\n\t\treturn false;\r\n\t}\r\n\r\n\t/*\r\n\t *this function returns the total number of committed votes of each candidate, provided their name \r\n\t * @param {bytes32} candidate\r\n\t * name of the candidate in bytes32\r\n\t *@return {uint}\r\n\t *total number of votes for each candidate\r\n\t */\r\n\r\n\tfunction totalVotesFor(bytes32 candidate) public view  returns(uint) {\r\n\t\tfor (uint i = 0; i < candidates.length; i++) {\r\n\t\t\tif (candidates[i].name == candidate) {\r\n\t\t\t\treturn getCandidateVoteCount(i);\r\n\t\t\t}\r\n\t\t}\r\n\t}\r\n\r\n\t/*\r\n\t *Automatic calculation of winning candidate with all votes of the voters\r\n\t * @return {uint} winningCandidate\r\n\t * the highest number of votes\r\n\t *\r\n\t */\r\n\r\n\tfunction winningCandidate() public view  returns(uint winner) {\r\n\t\tuint winningVoteCount = 0;\r\n\t\tfor (uint i = 0; i < candidates.length; i++) {\r\n\t\t\tif (candidates[i].voteCount > winningVoteCount) {\r\n\t\t\t\twinningVoteCount = candidates[i].voteCount;\r\n\t\t\t\twinner = i;\r\n\t\t\t}\r\n\t\t}\r\n\t}\r\n\t/*\r\n\t *This is a readonly function which returns the name of the winnner candidate\r\n\t *@return {string} winnerName\r\n\t *winner name\r\n\t */\r\n\tfunction winnerName() public view  returns(string memory winner) {\r\n\t\twinner = bytes32ToString(candidates[winningCandidate()].name);\r\n\t}\r\n\r\n\t/*\r\n\t *This function kills the contract and the remaining funds of the contract is recovered back to the admin\r\n\t *\r\n\t */\r\n\tfunction kill() public {\r\n\t\tif (msg.sender == admin) {\r\n\t\t\tselfdestruct(admin);\r\n\t\t}\r\n\t}\r\n\r\n\t/*\r\n\t *  This is a fallback function, which rejects any ether sent to it.It is good Ballotpractise to include such a function for every contract\r\n\t * in order not to loose Ether.  \r\n\t *@return {}\r\n\t */\r\n\r\n\t fallback() external {\r\n\t\treturn;\r\n\t}\r\n}",
  "sourcePath": "C:/Users/yubi/Desktop/kryptovote-react/contracts/Ballot.sol",
  "compiler": {
    "name": "solc",
    "version": "0.7.0+commit.9e61f92b.Emscripten.clang"
  },
  "schemaVersion": "3.2.3",
  "updatedAt": "2020-09-07T10:15:08.085Z",
  "networkType": "ethereum",
  "devdoc": {
    "kind": "dev",
    "methods": {},
    "version": 1
  },
  "userdoc": {
    "kind": "user",
    "methods": {},
    "version": 1
  }
}